{
  "_format": "hh-sol-artifact-1",
  "contractName": "VoterRegistry",
  "sourceName": "contracts/VoterRegistry.sol",
  "abi": [
    {
      "inputs": [
        {
          "internalType": "address",
          "name": "admin",
          "type": "address"
        }
      ],
      "stateMutability": "nonpayable",
      "type": "constructor"
    },
    {
      "anonymous": false,
      "inputs": [
        {
          "indexed": true,
          "internalType": "bytes32",
          "name": "role",
          "type": "bytes32"
        },
        {
          "indexed": true,
          "internalType": "bytes32",
          "name": "previousAdminRole",
          "type": "bytes32"
        },
        {
          "indexed": true,
          "internalType": "bytes32",
          "name": "newAdminRole",
          "type": "bytes32"
        }
      ],
      "name": "RoleAdminChanged",
      "type": "event"
    },
    {
      "anonymous": false,
      "inputs": [
        {
          "indexed": true,
          "internalType": "bytes32",
          "name": "role",
          "type": "bytes32"
        },
        {
          "indexed": true,
          "internalType": "address",
          "name": "account",
          "type": "address"
        },
        {
          "indexed": true,
          "internalType": "address",
          "name": "sender",
          "type": "address"
        }
      ],
      "name": "RoleGranted",
      "type": "event"
    },
    {
      "anonymous": false,
      "inputs": [
        {
          "indexed": true,
          "internalType": "bytes32",
          "name": "role",
          "type": "bytes32"
        },
        {
          "indexed": true,
          "internalType": "address",
          "name": "account",
          "type": "address"
        },
        {
          "indexed": true,
          "internalType": "address",
          "name": "sender",
          "type": "address"
        }
      ],
      "name": "RoleRevoked",
      "type": "event"
    },
    {
      "anonymous": false,
      "inputs": [
        {
          "indexed": true,
          "internalType": "address",
          "name": "voter",
          "type": "address"
        }
      ],
      "name": "VoterDeregistered",
      "type": "event"
    },
    {
      "anonymous": false,
      "inputs": [
        {
          "indexed": true,
          "internalType": "address",
          "name": "voter",
          "type": "address"
        }
      ],
      "name": "VoterRegistered",
      "type": "event"
    },
    {
      "inputs": [],
      "name": "ADMIN_ROLE",
      "outputs": [
        {
          "internalType": "bytes32",
          "name": "",
          "type": "bytes32"
        }
      ],
      "stateMutability": "view",
      "type": "function"
    },
    {
      "inputs": [],
      "name": "DEFAULT_ADMIN_ROLE",
      "outputs": [
        {
          "internalType": "bytes32",
          "name": "",
          "type": "bytes32"
        }
      ],
      "stateMutability": "view",
      "type": "function"
    },
    {
      "inputs": [
        {
          "internalType": "address",
          "name": "voter",
          "type": "address"
        }
      ],
      "name": "deregisterVoter",
      "outputs": [],
      "stateMutability": "nonpayable",
      "type": "function"
    },
    {
      "inputs": [
        {
          "internalType": "bytes32",
          "name": "role",
          "type": "bytes32"
        }
      ],
      "name": "getRoleAdmin",
      "outputs": [
        {
          "internalType": "bytes32",
          "name": "",
          "type": "bytes32"
        }
      ],
      "stateMutability": "view",
      "type": "function"
    },
    {
      "inputs": [
        {
          "internalType": "bytes32",
          "name": "role",
          "type": "bytes32"
        },
        {
          "internalType": "address",
          "name": "account",
          "type": "address"
        }
      ],
      "name": "grantRole",
      "outputs": [],
      "stateMutability": "nonpayable",
      "type": "function"
    },
    {
      "inputs": [
        {
          "internalType": "bytes32",
          "name": "role",
          "type": "bytes32"
        },
        {
          "internalType": "address",
          "name": "account",
          "type": "address"
        }
      ],
      "name": "hasRole",
      "outputs": [
        {
          "internalType": "bool",
          "name": "",
          "type": "bool"
        }
      ],
      "stateMutability": "view",
      "type": "function"
    },
    {
      "inputs": [
        {
          "internalType": "address",
          "name": "voter",
          "type": "address"
        }
      ],
      "name": "isRegistered",
      "outputs": [
        {
          "internalType": "bool",
          "name": "",
          "type": "bool"
        }
      ],
      "stateMutability": "view",
      "type": "function"
    },
    {
      "inputs": [
        {
          "internalType": "address",
          "name": "voter",
          "type": "address"
        }
      ],
      "name": "registerVoter",
      "outputs": [],
      "stateMutability": "nonpayable",
      "type": "function"
    },
    {
      "inputs": [
        {
          "internalType": "bytes32",
          "name": "role",
          "type": "bytes32"
        },
        {
          "internalType": "address",
          "name": "account",
          "type": "address"
        }
      ],
      "name": "renounceRole",
      "outputs": [],
      "stateMutability": "nonpayable",
      "type": "function"
    },
    {
      "inputs": [
        {
          "internalType": "bytes32",
          "name": "role",
          "type": "bytes32"
        },
        {
          "internalType": "address",
          "name": "account",
          "type": "address"
        }
      ],
      "name": "revokeRole",
      "outputs": [],
      "stateMutability": "nonpayable",
      "type": "function"
    },
    {
      "inputs": [
        {
          "internalType": "bytes4",
          "name": "interfaceId",
          "type": "bytes4"
        }
      ],
      "name": "supportsInterface",
      "outputs": [
        {
          "internalType": "bool",
          "name": "",
          "type": "bool"
        }
      ],
      "stateMutability": "view",
      "type": "function"
    }
  ],
  "bytecode": "0x608060405234801561001057600080fd5b50604051610b88380380610b8883398101604081905261002f916100df565b61003a600082610040565b5061010f565b6000828152602081815260408083206001600160a01b038516845290915290205460ff166100db576000828152602081815260408083206001600160a01b03851684529091529020805460ff1916600117905561009a3390565b6001600160a01b0316816001600160a01b0316837f2f8788117e7eff1d82e926ec794901d17c78024a50270940304540a733656f0d60405160405180910390a45b5050565b6000602082840312156100f157600080fd5b81516001600160a01b038116811461010857600080fd5b9392505050565b610a6a8061011e6000396000f3fe608060405234801561001057600080fd5b50600436106100a95760003560e01c80635964161a116100715780635964161a1461014257806375b238fc1461015557806391d148541461015d578063a217fddf14610155578063c3c5a54714610170578063d547741f1461019c57600080fd5b806301ffc9a7146100ae578063248a9ca3146100d65780632f2ff15d1461010757806336568abe1461011c57806338db6dd31461012f575b600080fd5b6100c16100bc3660046107fc565b6101af565b60405190151581526020015b60405180910390f35b6100f96100e4366004610826565b60009081526020819052604090206001015490565b6040519081526020016100cd565b61011a61011536600461085b565b6101e6565b005b61011a61012a36600461085b565b610210565b61011a61013d366004610887565b610293565b61011a610150366004610887565b6103d2565b6100f9600081565b6100c161016b36600461085b565b6104aa565b6100c161017e366004610887565b6001600160a01b031660009081526001602052604090205460ff1690565b61011a6101aa36600461085b565b6104d3565b60006001600160e01b03198216637965db0b60e01b14806101e057506301ffc9a760e01b6001600160e01b03198316145b92915050565b600082815260208190526040902060010154610201816104f8565b61020b8383610505565b505050565b6001600160a01b03811633146102855760405162461bcd60e51b815260206004820152602f60248201527f416363657373436f6e74726f6c3a2063616e206f6e6c792072656e6f756e636560448201526e103937b632b9903337b91039b2b63360891b60648201526084015b60405180910390fd5b61028f8282610589565b5050565b61029e6000336104aa565b6102ba5760405162461bcd60e51b815260040161027c906108a2565b6001600160a01b0381166103105760405162461bcd60e51b815260206004820152601b60248201527f566f74657252656769737472793a207a65726f20616464726573730000000000604482015260640161027c565b6001600160a01b03811660009081526001602052604090205460ff16156103835760405162461bcd60e51b815260206004820152602160248201527f566f74657252656769737472793a20616c7265616479207265676973746572656044820152601960fa1b606482015260840161027c565b6001600160a01b0381166000818152600160208190526040808320805460ff1916909217909155517fb6be2187d059cc2a55fe29e0e503b566e1e0f8c8780096e185429350acffd3dd9190a250565b6103dd6000336104aa565b6103f95760405162461bcd60e51b815260040161027c906108a2565b6001600160a01b03811660009081526001602052604090205460ff166104615760405162461bcd60e51b815260206004820152601d60248201527f566f74657252656769737472793a206e6f742072656769737465726564000000604482015260640161027c565b6001600160a01b038116600081815260016020526040808220805460ff19169055517fb92c1ca3841c77cabb2a2be9f8f5ea2822bc3dfb3eb01565a3d85e16396a024c9190a250565b6000918252602082815260408084206001600160a01b0393909316845291905290205460ff1690565b6000828152602081905260409020600101546104ee816104f8565b61020b8383610589565b61050281336105ee565b50565b61050f82826104aa565b61028f576000828152602081815260408083206001600160a01b03851684529091529020805460ff191660011790556105453390565b6001600160a01b0316816001600160a01b0316837f2f8788117e7eff1d82e926ec794901d17c78024a50270940304540a733656f0d60405160405180910390a45050565b61059382826104aa565b1561028f576000828152602081815260408083206001600160a01b0385168085529252808320805460ff1916905551339285917ff6391f5c32d9c69d2a47ea670b442974b53935d1edc7fd64eb21e047a839171b9190a45050565b6105f882826104aa565b61028f5761060581610647565b610610836020610659565b604051602001610621929190610909565b60408051601f198184030181529082905262461bcd60e51b825261027c9160040161097e565b60606101e06001600160a01b03831660145b606060006106688360026109c7565b6106739060026109de565b67ffffffffffffffff81111561068b5761068b6109f1565b6040519080825280601f01601f1916602001820160405280156106b5576020820181803683370190505b509050600360fc1b816000815181106106d0576106d0610a07565b60200101906001600160f81b031916908160001a905350600f60fb1b816001815181106106ff576106ff610a07565b60200101906001600160f81b031916908160001a90535060006107238460026109c7565b61072e9060016109de565b90505b60018111156107a6576f181899199a1a9b1b9c1cb0b131b232b360811b85600f166010811061076257610762610a07565b1a60f81b82828151811061077857610778610a07565b60200101906001600160f81b031916908160001a90535060049490941c9361079f81610a1d565b9050610731565b5083156107f55760405162461bcd60e51b815260206004820181905260248201527f537472696e67733a20686578206c656e67746820696e73756666696369656e74604482015260640161027c565b9392505050565b60006020828403121561080e57600080fd5b81356001600160e01b0319811681146107f557600080fd5b60006020828403121561083857600080fd5b5035919050565b80356001600160a01b038116811461085657600080fd5b919050565b6000806040838503121561086e57600080fd5b8235915061087e6020840161083f565b90509250929050565b60006020828403121561089957600080fd5b6107f58261083f565b60208082526023908201527f566f74657252656769737472793a205265737472696374656420746f2061646d604082015262696e7360e81b606082015260800190565b60005b838110156109005781810151838201526020016108e8565b50506000910152565b7f416363657373436f6e74726f6c3a206163636f756e74200000000000000000008152600083516109418160178501602088016108e5565b7001034b99036b4b9b9b4b733903937b6329607d1b60179184019182015283516109728160288401602088016108e5565b01602801949350505050565b602081526000825180602084015261099d8160408501602087016108e5565b601f01601f19169190910160400192915050565b634e487b7160e01b600052601160045260246000fd5b80820281158282048414176101e0576101e06109b1565b808201808211156101e0576101e06109b1565b634e487b7160e01b600052604160045260246000fd5b634e487b7160e01b600052603260045260246000fd5b600081610a2c57610a2c6109b1565b50600019019056fea2646970667358221220d8188a11d902bb872017b564277acd99d70f44c944fb67b102471941b94b124064736f6c63430008180033",
  "linkReferences": {},
  "deployedLinkReferences": {}
}