{"contracts/Election.sol":{"Election":{"abi":[{"inputs":[{"internalType":"address","name":"registryAddress","type":"address"},{"internalType":"address","name":"admin","type":"address"}],"stateMutability":"nonpayable","type":"constructor"},{"anonymous":false,"inputs":[{"indexed":true,"internalType":"uint256","name":"electionId","type":"uint256"},{"indexed":true,"internalType":"uint256","name":"candidateId","type":"uint256"},{"indexed":false,"internalType":"string","name":"name","type":"string"}],"name":"CandidateAdded","type":"event"},{"anonymous":false,"inputs":[{"indexed":true,"internalType":"uint256","name":"electionId","type":"uint256"},{"indexed":false,"internalType":"address","name":"ballotAddress","type":"address"},{"indexed":false,"internalType":"string","name":"name","type":"string"},{"indexed":false,"internalType":"uint256","name":"startTime","type":"uint256"},{"indexed":false,"internalType":"uint256","name":"endTime","type":"uint256"}],"name":"ElectionCreated","type":"event"},{"anonymous":false,"inputs":[{"indexed":true,"internalType":"uint256","name":"electionId","type":"uint256"}],"name":"ElectionEnded","type":"event"},{"anonymous":false,"inputs":[{"indexed":true,"internalType":"bytes32","name":"role","type":"bytes32"},{"indexed":true,"internalType":"bytes32","name":"previousAdminRole","type":"bytes32"},{"indexed":true,"internalType":"bytes32","name":"newAdminRole","type":"bytes32"}],"name":"RoleAdminChanged","type":"event"},{"anonymous":false,"inputs":[{"indexed":true,"internalType":"bytes32","name":"role","type":"bytes32"},{"indexed":true,"internalType":"address","name":"account","type":"address"},{"indexed":true,"internalType":"address","name":"sender","type":"address"}],"name":"RoleGranted","type":"event"},{"anonymous":false,"inputs":[{"indexed":true,"internalType":"bytes32","name":"role","type":"bytes32"},{"indexed":true,"internalType":"address","name":"account","type":"address"},{"indexed":true,"internalType":"address","name":"sender","type":"address"}],"name":"RoleRevoked","type":"event"},{"inputs":[],"name":"ADMIN_ROLE","outputs":[{"internalType":"bytes32","name":"","type":"bytes32"}],"stateMutability":"view","type":"function"},{"inputs":[],"name":"DEFAULT_ADMIN_ROLE","outputs":[{"internalType":"bytes32","name":"","type":"bytes32"}],"stateMutability":"view","type":"function"},{"inputs":[{"internalType":"uint256","name":"electionId","type":"uint256"},{"internalType":"string","name":"candidateName","type":"string"}],"name":"addCandidate","outputs":[],"stateMutability":"nonpayable","type":"function"},{"inputs":[{"internalType":"string","name":"name","type":"string"},{"internalType":"uint256","name":"startTime","type":"uint256"},{"internalType":"uint256","name":"endTime","type":"uint256"}],"name":"createElection","outputs":[{"internalType":"uint256","name":"","type":"uint256"}],"stateMutability":"nonpayable","type":"function"},{"inputs":[],"name":"electionCount","outputs":[{"internalType":"uint256","name":"","type":"uint256"}],"stateMutability":"view","type":"function"},{"inputs":[{"internalType":"uint256","name":"","type":"uint256"}],"name":"elections","outputs":[{"internalType":"uint256","name":"id","type":"uint256"},{"internalType":"string","name":"name","type":"string"},{"internalType":"address","name":"ballotAddress","type":"address"},{"internalType":"uint256","name":"startTime","type":"uint256"},{"internalType":"uint256","name":"endTime","type":"uint256"},{"internalType":"bool","name":"exists","type":"bool"}],"stateMutability":"view","type":"function"},{"inputs":[{"internalType":"uint256","name":"electionId","type":"uint256"}],"name":"endElection","outputs":[],"stateMutability":"nonpayable","type":"function"},{"inputs":[{"internalType":"uint256","name":"electionId","type":"uint256"}],"name":"getBallotAddress","outputs":[{"internalType":"address","name":"","type":"address"}],"stateMutability":"view","type":"function"},{"inputs":[{"internalType":"uint256","name":"electionId","type":"uint256"}],"name":"getElectionInfo","outputs":[{"internalType":"string","name":"name","type":"string"},{"internalType":"uint256","name":"startTime","type":"uint256"},{"internalType":"uint256","name":"endTime","type":"uint256"},{"internalType":"address","name":"ballotAddress","type":"address"}],"stateMutability":"view","type":"function"},{"inputs":[{"internalType":"bytes32","name":"role","type":"bytes32"}],"name":"getRoleAdmin","outputs":[{"internalType":"bytes32","name":"","type":"bytes32"}],"stateMutability":"view","type":"function"},{"inputs":[{"internalType":"bytes32","name":"role","type":"bytes32"},{"internalType":"address","name":"account","type":"address"}],"name":"grantRole","outputs":[],"stateMutability":"nonpayable","type":"function"},{"inputs":[{"internalType":"bytes32","name":"role","type":"bytes32"},{"internalType":"address","name":"account","type":"address"}],"name":"hasRole","outputs":[{"internalType":"bool","name":"","type":"bool"}],"stateMutability":"view","type":"function"},{"inputs":[],"name":"registry","outputs":[{"internalType":"contract VoterRegistry","name":"","type":"address"}],"stateMutability":"view","type":"function"},{"inputs":[{"internalType":"bytes32","name":"role","type":"bytes32"},{"internalType":"address","name":"account","type":"address"}],"name":"renounceRole","outputs":[],"stateMutability":"nonpayable","type":"function"},{"inputs":[{"internalType":"bytes32","name":"role","type":"bytes32"},{"internalType":"address","name":"account","type":"address"}],"name":"revokeRole","outputs":[],"stateMutability":"nonpayable","type":"function"},{"inputs":[{"internalType":"bytes4","name":"interfaceId","type":"bytes4"}],"name":"supportsInterface","outputs":[{"internalType":"bool","name":"","type":"bool"}],"stateMutability":"view","type":"function"}],"evm":{"bytecode":{"linkReferences":{},"object":"60806040523480156200001157600080fd5b50604051620027923803806200279283398101604081905262000034916200017d565b6001600160a01b0382166200008f5760405162461bcd60e51b815260206004820152601a60248201527f456c656374696f6e3a20696e76616c6964207265676973747279000000000000604482015260640160405180910390fd5b600380546001600160a01b0319166001600160a01b038416179055620000b7600082620000bf565b5050620001b5565b6000828152602081815260408083206001600160a01b038516845290915290205460ff166200015c576000828152602081815260408083206001600160a01b03851684529091529020805460ff191660011790556200011b3390565b6001600160a01b0316816001600160a01b0316837f2f8788117e7eff1d82e926ec794901d17c78024a50270940304540a733656f0d60405160405180910390a45b5050565b80516001600160a01b03811681146200017857600080fd5b919050565b600080604083850312156200019157600080fd5b6200019c8362000160565b9150620001ac6020840162000160565b90509250929050565b6125cd80620001c56000396000f3fe60806040523480156200001157600080fd5b5060043610620001155760003560e01c80637efa9ae311620000a3578063a217fddf116200006e578063a217fddf14620001ed578063ce99b5df1462000272578063d547741f146200029b578063f49a7a1714620002b257600080fd5b80637efa9ae3146200022357806391d14854146200023a578063997d283014620002515780639c98bcbb146200025b57600080fd5b806336568abe11620000e457806336568abe14620001ab5780635e6fef0114620001c257806375b238fc14620001ed5780637b10399914620001f657600080fd5b806301ffc9a7146200011a5780631750a3d01462000146578063248a9ca3146200015f5780632f2ff15d1462000194575b600080fd5b620001316200012b36600462000d60565b620002c9565b60405190151581526020015b60405180910390f35b6200015d6200015736600462000e37565b62000301565b005b620001856200017036600462000e82565b60009081526020819052604090206001015490565b6040519081526020016200013d565b6200015d620001a536600462000e9c565b62000417565b6200015d620001bc36600462000e9c565b62000445565b620001d9620001d336600462000e82565b620004c7565b6040516200013d9695949392919062000f2e565b62000185600081565b6003546200020a906001600160a01b031681565b6040516001600160a01b0390911681526020016200013d565b6200020a6200023436600462000e82565b6200059a565b620001316200024b36600462000e9c565b620005e2565b6200018560015481565b6200015d6200026c36600462000e82565b6200060b565b620002896200028336600462000e82565b620006ff565b6040516200013d949392919062000f79565b6200015d620002ac36600462000e9c565b62000803565b62000185620002c336600462000fb3565b6200082c565b60006001600160e01b03198216637965db0b60e01b1480620002fb57506301ffc9a760e01b6001600160e01b03198316145b92915050565b6200030e600033620005e2565b620003365760405162461bcd60e51b81526004016200032d9062001005565b60405180910390fd5b6000828152600260205260409020600581015460ff166200036b5760405162461bcd60e51b81526004016200032d906200103c565b600281015460405163118ba47b60e21b81526001600160a01b0390911690819063462e91ec90620003a190869060040162001069565b600060405180830381600087803b158015620003bc57600080fd5b505af1158015620003d1573d6000803e3d6000fd5b505050506000847fed8911b3df733b7d5f75724158e54478ea12e30f49c9d31b5261879f5b76586f8560405162000409919062001069565b60405180910390a350505050565b600082815260208190526040902060010154620004348162000a1b565b62000440838362000a2a565b505050565b6001600160a01b0381163314620004b75760405162461bcd60e51b815260206004820152602f60248201527f416363657373436f6e74726f6c3a2063616e206f6e6c792072656e6f756e636560448201526e103937b632b9903337b91039b2b63360891b60648201526084016200032d565b620004c3828262000ab2565b5050565b60026020526000908152604090208054600182018054919291620004eb906200107e565b80601f016020809104026020016040519081016040528092919081815260200182805462000519906200107e565b80156200056a5780601f106200053e576101008083540402835291602001916200056a565b820191906000526020600020905b8154815290600101906020018083116200054c57829003601f168201915b5050505060028301546003840154600485015460059095015493946001600160a01b039092169390925060ff1686565b6000818152600260205260408120600581015460ff16620005cf5760405162461bcd60e51b81526004016200032d906200103c565b600201546001600160a01b031692915050565b6000918252602082815260408084206001600160a01b0393909316845291905290205460ff1690565b62000618600033620005e2565b620006375760405162461bcd60e51b81526004016200032d9062001005565b6000818152600260205260409020600581015460ff166200066c5760405162461bcd60e51b81526004016200032d906200103c565b6002810154604080516301d23e5b60e51b815290516001600160a01b03909216918291633a47cb6091600480830192600092919082900301818387803b158015620006b657600080fd5b505af1158015620006cb573d6000803e3d6000fd5b50506040518592507f562cd572b2ba3b666cd989fc4ca98419ec81e75f04528df9d9d76fdb7807ee719150600090a2505050565b6000818152600260205260408120600581015460609291829182919060ff166200073d5760405162461bcd60e51b81526004016200032d906200103c565b600381015460048201546002830154600184018054909392916001600160a01b03169084906200076d906200107e565b80601f01602080910402602001604051908101604052809291908181526020018280546200079b906200107e565b8015620007ec5780601f10620007c057610100808354040283529160200191620007ec565b820191906000526020600020905b815481529060010190602001808311620007ce57829003601f168201915b505050505093509450945094509450509193509193565b600082815260208190526040902060010154620008208162000a1b565b62000440838362000ab2565b60006200083a8133620005e2565b620008595760405162461bcd60e51b81526004016200032d9062001005565b818310620008aa5760405162461bcd60e51b815260206004820152601e60248201527f456c656374696f6e3a207374617274203c20656e64207265717569726564000060448201526064016200032d565b60018054906000620008bc83620010d0565b90915550506001546003546040516000916001600160a01b0316908390889088908890620008ea9062000d52565b620008fa959493929190620010ec565b604051809103906000f08015801562000917573d6000803e3d6000fd5b506040805160c08101825284815260208082018a81526001600160a01b03851683850152606083018a905260808301899052600160a084018190526000888152600290935293909120825181559051939450909290918201906200097c90826200117d565b506040828101516002830180546001600160a01b0319166001600160a01b03909216919091179055606083015160038301556080830151600483015560a0909201516005909101805460ff19169115159190911790555182907fb7e3ddf74a01983ed95ee8d25463572052b3548f0e02733018c5703ecdcbd71f9062000a0a9084908a908a908a906200124a565b60405180910390a250949350505050565b62000a27813362000b1a565b50565b62000a368282620005e2565b620004c3576000828152602081815260408083206001600160a01b03851684529091529020805460ff1916600117905562000a6e3390565b6001600160a01b0316816001600160a01b0316837f2f8788117e7eff1d82e926ec794901d17c78024a50270940304540a733656f0d60405160405180910390a45050565b62000abe8282620005e2565b15620004c3576000828152602081815260408083206001600160a01b0385168085529252808320805460ff1916905551339285917ff6391f5c32d9c69d2a47ea670b442974b53935d1edc7fd64eb21e047a839171b9190a45050565b62000b268282620005e2565b620004c35762000b368162000b7e565b62000b4383602062000b91565b60405160200162000b5692919062001283565b60408051601f198184030181529082905262461bcd60e51b82526200032d9160040162001069565b6060620002fb6001600160a01b03831660145b6060600062000ba2836002620012fc565b62000baf90600262001316565b67ffffffffffffffff81111562000bca5762000bca62000d8c565b6040519080825280601f01601f19166020018201604052801562000bf5576020820181803683370190505b509050600360fc1b8160008151811062000c135762000c136200132c565b60200101906001600160f81b031916908160001a905350600f60fb1b8160018151811062000c455762000c456200132c565b60200101906001600160f81b031916908160001a905350600062000c6b846002620012fc565b62000c7890600162001316565b90505b600181111562000cfa576f181899199a1a9b1b9c1cb0b131b232b360811b85600f166010811062000cb05762000cb06200132c565b1a60f81b82828151811062000cc95762000cc96200132c565b60200101906001600160f81b031916908160001a90535060049490941c9362000cf28162001342565b905062000c7b565b50831562000d4b5760405162461bcd60e51b815260206004820181905260248201527f537472696e67733a20686578206c656e67746820696e73756666696369656e7460448201526064016200032d565b9392505050565b61123b806200135d83390190565b60006020828403121562000d7357600080fd5b81356001600160e01b03198116811462000d4b57600080fd5b634e487b7160e01b600052604160045260246000fd5b600082601f83011262000db457600080fd5b813567ffffffffffffffff8082111562000dd25762000dd262000d8c565b604051601f8301601f19908116603f0116810190828211818310171562000dfd5762000dfd62000d8c565b8160405283815286602085880101111562000e1757600080fd5b836020870160208301376000602085830101528094505050505092915050565b6000806040838503121562000e4b57600080fd5b82359150602083013567ffffffffffffffff81111562000e6a57600080fd5b62000e788582860162000da2565b9150509250929050565b60006020828403121562000e9557600080fd5b5035919050565b6000806040838503121562000eb057600080fd5b8235915060208301356001600160a01b038116811462000ecf57600080fd5b809150509250929050565b60005b8381101562000ef757818101518382015260200162000edd565b50506000910152565b6000815180845262000f1a81602086016020860162000eda565b601f01601f19169290920160200192915050565b86815260c06020820152600062000f4960c083018862000f00565b6001600160a01b039690961660408301525060608101939093526080830191909152151560a09091015292915050565b60808152600062000f8e608083018762000f00565b60208301959095525060408101929092526001600160a01b0316606090910152919050565b60008060006060848603121562000fc957600080fd5b833567ffffffffffffffff81111562000fe157600080fd5b62000fef8682870162000da2565b9660208601359650604090950135949350505050565b6020808252601e908201527f456c656374696f6e3a207265737472696374656420746f2061646d696e730000604082015260600190565b602080825260139082015272115b1958dd1a5bdb8e881b9bdd08199bdd5b99606a1b604082015260600190565b60208152600062000d4b602083018462000f00565b600181811c908216806200109357607f821691505b602082108103620010b457634e487b7160e01b600052602260045260246000fd5b50919050565b634e487b7160e01b600052601160045260246000fd5b600060018201620010e557620010e5620010ba565b5060010190565b60018060a01b038616815284602082015260a0604082015260006200111560a083018662000f00565b606083019490945250608001529392505050565b601f82111562000440576000816000526020600020601f850160051c81016020861015620011545750805b601f850160051c820191505b81811015620011755782815560010162001160565b505050505050565b815167ffffffffffffffff8111156200119a576200119a62000d8c565b620011b281620011ab84546200107e565b8462001129565b602080601f831160018114620011ea5760008415620011d15750858301515b600019600386901b1c1916600185901b17855562001175565b600085815260208120601f198616915b828110156200121b57888601518255948401946001909101908401620011fa565b50858210156200123a5787850151600019600388901b60f8161c191681555b5050505050600190811b01905550565b6001600160a01b0385168152608060208201819052600090620012709083018662000f00565b6040830194909452506060015292915050565b7f416363657373436f6e74726f6c3a206163636f756e7420000000000000000000815260008351620012bd81601785016020880162000eda565b7001034b99036b4b9b9b4b733903937b6329607d1b6017918401918201528351620012f081602884016020880162000eda565b01602801949350505050565b8082028115828204841417620002fb57620002fb620010ba565b80820180821115620002fb57620002fb620010ba565b634e487b7160e01b600052603260045260246000fd5b600081620013545762001354620010ba565b50600019019056fe60806040523480156200001157600080fd5b506040516200123b3803806200123b833981016040819052620000349162000147565b60016000556001600160a01b038516620000955760405162461bcd60e51b815260206004820152601860248201527f42616c6c6f743a20696e76616c6964207265676973747279000000000000000060448201526064015b60405180910390fd5b808210620000e65760405162461bcd60e51b815260206004820152601560248201527f42616c6c6f743a20696e76616c69642074696d6573000000000000000000000060448201526064016200008c565b600180546001600160a01b0319166001600160a01b03871617905560028490556003620001148482620002ea565b5060049190915560055550506006805460ff1916905550620003b6565b634e487b7160e01b600052604160045260246000fd5b600080600080600060a086880312156200016057600080fd5b85516001600160a01b03811681146200017857600080fd5b60208781015160408901519297509550906001600160401b03808211156200019f57600080fd5b818901915089601f830112620001b457600080fd5b815181811115620001c957620001c962000131565b604051601f8201601f19908116603f01168101908382118183101715620001f457620001f462000131565b816040528281528c868487010111156200020d57600080fd5b600093505b8284101562000231578484018601518185018701529285019262000212565b6000928101909501919091525050506060870151608090970151959894975095949392505050565b600181811c908216806200026e57607f821691505b6020821081036200028f57634e487b7160e01b600052602260045260246000fd5b50919050565b601f821115620002e5576000816000526020600020601f850160051c81016020861015620002c05750805b601f850160051c820191505b81811015620002e157828155600101620002cc565b5050505b505050565b81516001600160401b0381111562000306576200030662000131565b6200031e8162000317845462000259565b8462000295565b602080601f8311600181146200035657600084156200033d5750858301515b600019600386901b1c1916600185901b178555620002e1565b600085815260208120601f198616915b82811015620003875788860151825594840194600190910190840162000366565b5085821015620003a65787850151600019600388901b60f8161c191681555b5050505050600190811b01905550565b610e7580620003c66000396000f3fe608060405234801561001057600080fd5b50600436106100ea5760003560e01c8063462e91ec1161008c57806385e8e7a71161006657806385e8e7a7146101b5578063a9a981a3146101ca578063df15c37e146101d3578063e3e6ca7d146101e957600080fd5b8063462e91ec1461016e57806378e97925146101815780637b1039991461018a57600080fd5b80630d15fd77116100c85780630d15fd771461013757806312fa6feb146101405780633197cbb61461015d5780633a47cb601461016657600080fd5b80630121b93f146100ef578063051364d41461010457806306a49fce14610120575b600080fd5b6101026100fd366004610a28565b610215565b005b61010d60025481565b6040519081526020015b60405180910390f35b6101286104bf565b60405161011793929190610ac3565b61010d60085481565b60065461014d9060ff1681565b6040519015158152602001610117565b61010d60055481565b6101026106ce565b61010261017c366004610b5e565b610706565b61010d60045481565b60015461019d906001600160a01b031681565b6040516001600160a01b039091168152602001610117565b6101bd6107a9565b6040516101179190610c0f565b61010d60075481565b6101db610837565b604051610117929190610c29565b61014d6101f7366004610c4b565b6001600160a01b03166000908152600a602052604090205460ff1690565b61021d6109cf565b60065460ff16156102655760405162461bcd60e51b815260206004820152600d60248201526c10985b1b1bdd0e88195b991959609a1b60448201526064015b60405180910390fd5b600454421015801561027957506005544211155b6102ba5760405162461bcd60e51b815260206004820152601260248201527142616c6c6f743a206e6f742061637469766560701b604482015260640161025c565b6000811180156102cc57506007548111155b6103185760405162461bcd60e51b815260206004820152601960248201527f42616c6c6f743a20696e76616c69642063616e64696461746500000000000000604482015260640161025c565b336000908152600a602052604090205460ff16156103705760405162461bcd60e51b815260206004820152601560248201527410985b1b1bdd0e88185b1c9958591e481d9bdd1959605a1b604482015260640161025c565b60015460405163c3c5a54760e01b81523360048201526001600160a01b039091169063c3c5a54790602401602060405180830381865afa1580156103b8573d6000803e3d6000fd5b505050506040513d601f19601f820116820180604052508101906103dc9190610c74565b6104285760405162461bcd60e51b815260206004820152601c60248201527f42616c6c6f743a206e6f74207265676973746572656420766f74657200000000604482015260640161025c565b336000908152600a60209081526040808320805460ff1916600190811790915584845260099092528220600201805491929091610466908490610cac565b925050819055506001600860008282546104809190610cac565b9091555050604051819033907fa36cc2bebb74db33e9f88110a07ef56e1b31b24b4c4f51b54b1664266e29f45b90600090a36104bc6001600055565b50565b6060806060600060075490508067ffffffffffffffff8111156104e4576104e4610b48565b60405190808252806020026020018201604052801561050d578160200160208202803683370190505b5093508067ffffffffffffffff81111561052957610529610b48565b60405190808252806020026020018201604052801561055c57816020015b60608152602001906001900390816105475790505b5092508067ffffffffffffffff81111561057857610578610b48565b6040519080825280602002602001820160405280156105a1578160200160208202803683370190505b50915060005b818110156106c75760006105bc826001610cac565b60008181526009602052604090208054885192935090918890859081106105e5576105e5610cc5565b60200260200101818152505080600101805461060090610cdb565b80601f016020809104026020016040519081016040528092919081815260200182805461062c90610cdb565b80156106795780601f1061064e57610100808354040283529160200191610679565b820191906000526020600020905b81548152906001019060200180831161065c57829003601f168201915b505050505086848151811061069057610690610cc5565b602002602001018190525080600201548584815181106106b2576106b2610cc5565b602090810291909101015250506001016105a7565b5050909192565b6006805460ff191660011790556040517f62da22c1648062738addb8883c7a3f94ae072a1282f0d8e9e4deb361d3c67cd590600090a1565b6007805490600061071683610d15565b909155505060408051606081018252600754808252602080830185815260008486018190529283526009909152929020815181559151909190600182019061075e9082610d7f565b50604082015181600201559050506007547fe83b2a43e7e82d975c8a0a6d2f045153c869e111136a34d1889ab7b598e396a38260405161079e9190610c0f565b60405180910390a250565b600380546107b690610cdb565b80601f01602080910402602001604051908101604052809291908181526020018280546107e290610cdb565b801561082f5780601f106108045761010080835404028352916020019161082f565b820191906000526020600020905b81548152906001019060200180831161081257829003601f168201915b505050505081565b6060600080600754116108845760405162461bcd60e51b815260206004820152601560248201527442616c6c6f743a206e6f2063616e6469646174657360581b604482015260640161025c565b600060015b60075481116108c357600081815260096020526040902060020154828111156108b0578092505b50806108bb81610d15565b915050610889565b50600060015b600754811161090b576000818152600960205260409020600201548390036108f957816108f581610d15565b9250505b8061090381610d15565b9150506108c9565b508067ffffffffffffffff81111561092557610925610b48565b60405190808252806020026020018201604052801561094e578160200160208202803683370190505b509350600060015b60075481116109c3576000818152600960205260409020600201548490036109b157600081815260096020526040902054868361099281610d15565b9450815181106109a4576109a4610cc5565b6020026020010181815250505b806109bb81610d15565b915050610956565b50939491935090915050565b600260005403610a215760405162461bcd60e51b815260206004820152601f60248201527f5265656e7472616e637947756172643a207265656e7472616e742063616c6c00604482015260640161025c565b6002600055565b600060208284031215610a3a57600080fd5b5035919050565b60008151808452602080850194506020840160005b83811015610a7257815187529582019590820190600101610a56565b509495945050505050565b6000815180845260005b81811015610aa357602081850181015186830182015201610a87565b506000602082860101526020601f19601f83011685010191505092915050565b606081526000610ad66060830186610a41565b6020838203818501528186518084528284019150828160051b85010183890160005b83811015610b2657601f19878403018552610b14838351610a7d565b94860194925090850190600101610af8565b50508681036040880152610b3a8189610a41565b9a9950505050505050505050565b634e487b7160e01b600052604160045260246000fd5b600060208284031215610b7057600080fd5b813567ffffffffffffffff80821115610b8857600080fd5b818401915084601f830112610b9c57600080fd5b813581811115610bae57610bae610b48565b604051601f8201601f19908116603f01168101908382118183101715610bd657610bd6610b48565b81604052828152876020848701011115610bef57600080fd5b826020860160208301376000928101602001929092525095945050505050565b602081526000610c226020830184610a7d565b9392505050565b604081526000610c3c6040830185610a41565b90508260208301529392505050565b600060208284031215610c5d57600080fd5b81356001600160a01b0381168114610c2257600080fd5b600060208284031215610c8657600080fd5b81518015158114610c2257600080fd5b634e487b7160e01b600052601160045260246000fd5b80820180821115610cbf57610cbf610c96565b92915050565b634e487b7160e01b600052603260045260246000fd5b600181811c90821680610cef57607f821691505b602082108103610d0f57634e487b7160e01b600052602260045260246000fd5b50919050565b600060018201610d2757610d27610c96565b5060010190565b601f821115610d7a576000816000526020600020601f850160051c81016020861015610d575750805b601f850160051c820191505b81811015610d7657828155600101610d63565b5050505b505050565b815167ffffffffffffffff811115610d9957610d99610b48565b610dad81610da78454610cdb565b84610d2e565b602080601f831160018114610de25760008415610dca5750858301515b600019600386901b1c1916600185901b178555610d76565b600085815260208120601f198616915b82811015610e1157888601518255948401946001909101908401610df2565b5085821015610e2f5787850151600019600388901b60f8161c191681555b5050505050600190811b0190555056fea26469706673582212208fa767df5c7d8c3aba9d08d713fcbd5717ea2a5cf5b61b0625828a03d6c1f6fc64736f6c63430008180033a26469706673582212205cab58e6f13743e83f9fa691f378e95112c47bf128b3d46aeb1a29a1f3a205f364736f6c63430008180033","opcodes":"PUSH1 0x80 PUSH1 0x40 MSTORE CALLVALUE DUP1 ISZERO PUSH3 0x11 JUMPI PUSH1 0x0 DUP1 REVERT JUMPDEST POP PUSH1 0x40 MLOAD PUSH3 0x2792 CODESIZE SUB DUP1 PUSH3 0x2792 DUP4 CODECOPY DUP2 ADD PUSH1 0x40 DUP2 SWAP1 MSTORE PUSH3 0x34 SWAP2 PUSH3 0x17D JUMP JUMPDEST PUSH1 0x1 PUSH1 0x1 PUSH1 0xA0 SHL SUB DUP3 AND PUSH3 0x8F JUMPI PUSH1 0x40 MLOAD PUSH3 0x461BCD PUSH1 0xE5 SHL DUP2 MSTORE PUSH1 0x20 PUSH1 0x4 DUP3 ADD MSTORE PUSH1 0x1A PUSH1 0x24 DUP3 ADD MSTORE PUSH32 0x456C656374696F6E3A20696E76616C6964207265676973747279000000000000 PUSH1 0x44 DUP3 ADD MSTORE PUSH1 0x64 ADD PUSH1 0x40 MLOAD DUP1 SWAP2 SUB SWAP1 REVERT JUMPDEST PUSH1 0x3 DUP1 SLOAD PUSH1 0x1 PUSH1 0x1 PUSH1 0xA0 SHL SUB NOT AND PUSH1 0x1 PUSH1 0x1 PUSH1 0xA0 SHL SUB DUP5 AND OR SWAP1 SSTORE PUSH3 0xB7 PUSH1 0x0 DUP3 PUSH3 0xBF JUMP JUMPDEST POP POP PUSH3 0x1B5 JUMP JUMPDEST PUSH1 0x0 DUP3 DUP2 MSTORE PUSH1 0x20 DUP2 DUP2 MSTORE PUSH1 0x40 DUP1 DUP4 KECCAK256 PUSH1 0x1 PUSH1 0x1 PUSH1 0xA0 SHL SUB DUP6 AND DUP5 MSTORE SWAP1 SWAP2 MSTORE SWAP1 KECCAK256 SLOAD PUSH1 0xFF AND PUSH3 0x15C JUMPI PUSH1 0x0 DUP3 DUP2 MSTORE PUSH1 0x20 DUP2 DUP2 MSTORE PUSH1 0x40 DUP1 DUP4 KECCAK256 PUSH1 0x1 PUSH1 0x1 PUSH1 0xA0 SHL SUB DUP6 AND DUP5 MSTORE SWAP1 SWAP2 MSTORE SWAP1 KECCAK256 DUP1 SLOAD PUSH1 0xFF NOT AND PUSH1 0x1 OR SWAP1 SSTORE PUSH3 0x11B CALLER SWAP1 JUMP JUMPDEST PUSH1 0x1 PUSH1 0x1 PUSH1 0xA0 SHL SUB AND DUP2 PUSH1 0x1 PUSH1 0x1 PUSH1 0xA0 SHL SUB AND DUP4 PUSH32 0x2F8788117E7EFF1D82E926EC794901D17C78024A50270940304540A733656F0D PUSH1 0x40 MLOAD PUSH1 0x40 MLOAD DUP1 SWAP2 SUB SWAP1 LOG4 JUMPDEST POP POP JUMP JUMPDEST DUP1 MLOAD PUSH1 0x1 PUSH1 0x1 PUSH1 0xA0 SHL SUB DUP2 AND DUP2 EQ PUSH3 0x178 JUMPI PUSH1 0x0 DUP1 REVERT JUMPDEST SWAP2 SWAP1 POP JUMP JUMPDEST PUSH1 0x0 DUP1 PUSH1 0x40 DUP4 DUP6 SUB SLT ISZERO PUSH3 0x191 JUMPI PUSH1 0x0 DUP1 REVERT JUMPDEST PUSH3 0x19C DUP4 PUSH3 0x160 JUMP JUMPDEST SWAP2 POP PUSH3 0x1AC PUSH1 0x20 DUP5 ADD PUSH3 0x160 JUMP JUMPDEST SWAP1 POP SWAP3 POP SWAP3 SWAP1 POP JUMP JUMPDEST PUSH2 0x25CD DUP1 PUSH3 0x1C5 PUSH1 0x0 CODECOPY PUSH1 0x0 RETURN INVALID PUSH1 0x80 PUSH1 0x40 MSTORE CALLVALUE DUP1 ISZERO PUSH3 0x11 JUMPI PUSH1 0x0 DUP1 REVERT JUMPDEST POP PUSH1 0x4 CALLDATASIZE LT PUSH3 0x115 JUMPI PUSH1 0x0 CALLDATALOAD PUSH1 0xE0 SHR DUP1 PUSH4 0x7EFA9AE3 GT PUSH3 0xA3 JUMPI DUP1 PUSH4 0xA217FDDF GT PUSH3 0x6E JUMPI DUP1 PUSH4 0xA217FDDF EQ PUSH3 0x1ED JUMPI DUP1 PUSH4 0xCE99B5DF EQ PUSH3 0x272 JUMPI DUP1 PUSH4 0xD547741F EQ PUSH3 0x29B JUMPI DUP1 PUSH4 0xF49A7A17 EQ PUSH3 0x2B2 JUMPI PUSH1 0x0 DUP1 REVERT JUMPDEST DUP1 PUSH4 0x7EFA9AE3 EQ PUSH3 0x223 JUMPI DUP1 PUSH4 0x91D14854 EQ PUSH3 0x23A JUMPI DUP1 PUSH4 0x997D2830 EQ PUSH3 0x251 JUMPI DUP1 PUSH4 0x9C98BCBB EQ PUSH3 0x25B JUMPI PUSH1 0x0 DUP1 REVERT JUMPDEST DUP1 PUSH4 0x36568ABE GT PUSH3 0xE4 JUMPI DUP1 PUSH4 0x36568ABE EQ PUSH3 0x1AB JUMPI DUP1 PUSH4 0x5E6FEF01 EQ PUSH3 0x1C2 JUMPI DUP1 PUSH4 0x75B238FC EQ PUSH3 0x1ED JUMPI DUP1 PUSH4 0x7B103999 EQ PUSH3 0x1F6 JUMPI PUSH1 0x0 DUP1 REVERT JUMPDEST DUP1 PUSH4 0x1FFC9A7 EQ PUSH3 0x11A JUMPI DUP1 PUSH4 0x1750A3D0 EQ PUSH3 0x146 JUMPI DUP1 PUSH4 0x248A9CA3 EQ PUSH3 0x15F JUMPI DUP1 PUSH4 0x2F2FF15D EQ PUSH3 0x194 JUMPI JUMPDEST PUSH1 0x0 DUP1 REVERT JUMPDEST PUSH3 0x131 PUSH3 0x12B CALLDATASIZE PUSH1 0x4 PUSH3 0xD60 JUMP JUMPDEST PUSH3 0x2C9 JUMP JUMPDEST PUSH1 0x40 MLOAD SWAP1 ISZERO ISZERO DUP2 MSTORE PUSH1 0x20 ADD JUMPDEST PUSH1 0x40 MLOAD DUP1 SWAP2 SUB SWAP1 RETURN JUMPDEST PUSH3 0x15D PUSH3 0x157 CALLDATASIZE PUSH1 0x4 PUSH3 0xE37 JUMP JUMPDEST PUSH3 0x301 JUMP JUMPDEST STOP JUMPDEST PUSH3 0x185 PUSH3 0x170 CALLDATASIZE PUSH1 0x4 PUSH3 0xE82 JUMP JUMPDEST PUSH1 0x0 SWAP1 DUP2 MSTORE PUSH1 0x20 DUP2 SWAP1 MSTORE PUSH1 0x40 SWAP1 KECCAK256 PUSH1 0x1 ADD SLOAD SWAP1 JUMP JUMPDEST PUSH1 0x40 MLOAD SWAP1 DUP2 MSTORE PUSH1 0x20 ADD PUSH3 0x13D JUMP JUMPDEST PUSH3 0x15D PUSH3 0x1A5 CALLDATASIZE PUSH1 0x4 PUSH3 0xE9C JUMP JUMPDEST PUSH3 0x417 JUMP JUMPDEST PUSH3 0x15D PUSH3 0x1BC CALLDATASIZE PUSH1 0x4 PUSH3 0xE9C JUMP JUMPDEST PUSH3 0x445 JUMP JUMPDEST PUSH3 0x1D9 PUSH3 0x1D3 CALLDATASIZE PUSH1 0x4 PUSH3 0xE82 JUMP JUMPDEST PUSH3 0x4C7 JUMP JUMPDEST PUSH1 0x40 MLOAD PUSH3 0x13D SWAP7 SWAP6 SWAP5 SWAP4 SWAP3 SWAP2 SWAP1 PUSH3 0xF2E JUMP JUMPDEST PUSH3 0x185 PUSH1 0x0 DUP2 JUMP JUMPDEST PUSH1 0x3 SLOAD PUSH3 0x20A SWAP1 PUSH1 0x1 PUSH1 0x1 PUSH1 0xA0 SHL SUB AND DUP2 JUMP JUMPDEST PUSH1 0x40 MLOAD PUSH1 0x1 PUSH1 0x1 PUSH1 0xA0 SHL SUB SWAP1 SWAP2 AND DUP2 MSTORE PUSH1 0x20 ADD PUSH3 0x13D JUMP JUMPDEST PUSH3 0x20A PUSH3 0x234 CALLDATASIZE PUSH1 0x4 PUSH3 0xE82 JUMP JUMPDEST PUSH3 0x59A JUMP JUMPDEST PUSH3 0x131 PUSH3 0x24B CALLDATASIZE PUSH1 0x4 PUSH3 0xE9C JUMP JUMPDEST PUSH3 0x5E2 JUMP JUMPDEST PUSH3 0x185 PUSH1 0x1 SLOAD DUP2 JUMP JUMPDEST PUSH3 0x15D PUSH3 0x26C CALLDATASIZE PUSH1 0x4 PUSH3 0xE82 JUMP JUMPDEST PUSH3 0x60B JUMP JUMPDEST PUSH3 0x289 PUSH3 0x283 CALLDATASIZE PUSH1 0x4 PUSH3 0xE82 JUMP JUMPDEST PUSH3 0x6FF JUMP JUMPDEST PUSH1 0x40 MLOAD PUSH3 0x13D SWAP5 SWAP4 SWAP3 SWAP2 SWAP1 PUSH3 0xF79 JUMP JUMPDEST PUSH3 0x15D PUSH3 0x2AC CALLDATASIZE PUSH1 0x4 PUSH3 0xE9C JUMP JUMPDEST PUSH3 0x803 JUMP JUMPDEST PUSH3 0x185 PUSH3 0x2C3 CALLDATASIZE PUSH1 0x4 PUSH3 0xFB3 JUMP JUMPDEST PUSH3 0x82C JUMP JUMPDEST PUSH1 0x0 PUSH1 0x1 PUSH1 0x1 PUSH1 0xE0 SHL SUB NOT DUP3 AND PUSH4 0x7965DB0B PUSH1 0xE0 SHL EQ DUP1 PUSH3 0x2FB JUMPI POP PUSH4 0x1FFC9A7 PUSH1 0xE0 SHL PUSH1 0x1 PUSH1 0x1 PUSH1 0xE0 SHL SUB NOT DUP4 AND EQ JUMPDEST SWAP3 SWAP2 POP POP JUMP JUMPDEST PUSH3 0x30E PUSH1 0x0 CALLER PUSH3 0x5E2 JUMP JUMPDEST PUSH3 0x336 JUMPI PUSH1 0x40 MLOAD PUSH3 0x461BCD PUSH1 0xE5 SHL DUP2 MSTORE PUSH1 0x4 ADD PUSH3 0x32D SWAP1 PUSH3 0x1005 JUMP JUMPDEST PUSH1 0x40 MLOAD DUP1 SWAP2 SUB SWAP1 REVERT JUMPDEST PUSH1 0x0 DUP3 DUP2 MSTORE PUSH1 0x2 PUSH1 0x20 MSTORE PUSH1 0x40 SWAP1 KECCAK256 PUSH1 0x5 DUP2 ADD SLOAD PUSH1 0xFF AND PUSH3 0x36B JUMPI PUSH1 0x40 MLOAD PUSH3 0x461BCD PUSH1 0xE5 SHL DUP2 MSTORE PUSH1 0x4 ADD PUSH3 0x32D SWAP1 PUSH3 0x103C JUMP JUMPDEST PUSH1 0x2 DUP2 ADD SLOAD PUSH1 0x40 MLOAD PUSH4 0x118BA47B PUSH1 0xE2 SHL DUP2 MSTORE PUSH1 0x1 PUSH1 0x1 PUSH1 0xA0 SHL SUB SWAP1 SWAP2 AND SWAP1 DUP2 SWAP1 PUSH4 0x462E91EC SWAP1 PUSH3 0x3A1 SWAP1 DUP7 SWAP1 PUSH1 0x4 ADD PUSH3 0x1069 JUMP JUMPDEST PUSH1 0x0 PUSH1 0x40 MLOAD DUP1 DUP4 SUB DUP2 PUSH1 0x0 DUP8 DUP1 EXTCODESIZE ISZERO DUP1 ISZERO PUSH3 0x3BC JUMPI PUSH1 0x0 DUP1 REVERT JUMPDEST POP GAS CALL ISZERO DUP1 ISZERO PUSH3 0x3D1 JUMPI RETURNDATASIZE PUSH1 0x0 DUP1 RETURNDATACOPY RETURNDATASIZE PUSH1 0x0 REVERT JUMPDEST POP POP POP POP PUSH1 0x0 DUP5 PUSH32 0xED8911B3DF733B7D5F75724158E54478EA12E30F49C9D31B5261879F5B76586F DUP6 PUSH1 0x40 MLOAD PUSH3 0x409 SWAP2 SWAP1 PUSH3 0x1069 JUMP JUMPDEST PUSH1 0x40 MLOAD DUP1 SWAP2 SUB SWAP1 LOG3 POP POP POP POP JUMP JUMPDEST PUSH1 0x0 DUP3 DUP2 MSTORE PUSH1 0x20 DUP2 SWAP1 MSTORE PUSH1 0x40 SWAP1 KECCAK256 PUSH1 0x1 ADD SLOAD PUSH3 0x434 DUP2 PUSH3 0xA1B JUMP JUMPDEST PUSH3 0x440 DUP4 DUP4 PUSH3 0xA2A JUMP JUMPDEST POP POP POP JUMP JUMPDEST PUSH1 0x1 PUSH1 0x1 PUSH1 0xA0 SHL SUB DUP2 AND CALLER EQ PUSH3 0x4B7 JUMPI PUSH1 0x40 MLOAD PUSH3 0x461BCD PUSH1 0xE5 SHL DUP2 MSTORE PUSH1 0x20 PUSH1 0x4 DUP3 ADD MSTORE PUSH1 0x2F PUSH1 0x24 DUP3 ADD MSTORE PUSH32 0x416363657373436F6E74726F6C3A2063616E206F6E6C792072656E6F756E6365 PUSH1 0x44 DUP3 ADD MSTORE PUSH15 0x103937B632B9903337B91039B2B633 PUSH1 0x89 SHL PUSH1 0x64 DUP3 ADD MSTORE PUSH1 0x84 ADD PUSH3 0x32D JUMP JUMPDEST PUSH3 0x4C3 DUP3 DUP3 PUSH3 0xAB2 JUMP JUMPDEST POP POP JUMP JUMPDEST PUSH1 0x2 PUSH1 0x20 MSTORE PUSH1 0x0 SWAP1 DUP2 MSTORE PUSH1 0x40 SWAP1 KECCAK256 DUP1 SLOAD PUSH1 0x1 DUP3 ADD DUP1 SLOAD SWAP2 SWAP3 SWAP2 PUSH3 0x4EB SWAP1 PUSH3 0x107E JUMP JUMPDEST DUP1 PUSH1 0x1F ADD PUSH1 0x20 DUP1 SWAP2 DIV MUL PUSH1 0x20 ADD PUSH1 0x40 MLOAD SWAP1 DUP2 ADD PUSH1 0x40 MSTORE DUP1 SWAP3 SWAP2 SWAP1 DUP2 DUP2 MSTORE PUSH1 0x20 ADD DUP3 DUP1 SLOAD PUSH3 0x519 SWAP1 PUSH3 0x107E JUMP JUMPDEST DUP1 ISZERO PUSH3 0x56A JUMPI DUP1 PUSH1 0x1F LT PUSH3 0x53E JUMPI PUSH2 0x100 DUP1 DUP4 SLOAD DIV MUL DUP4 MSTORE SWAP2 PUSH1 0x20 ADD SWAP2 PUSH3 0x56A JUMP JUMPDEST DUP3 ADD SWAP2 SWAP1 PUSH1 0x0 MSTORE PUSH1 0x20 PUSH1 0x0 KECCAK256 SWAP1 JUMPDEST DUP2 SLOAD DUP2 MSTORE SWAP1 PUSH1 0x1 ADD SWAP1 PUSH1 0x20 ADD DUP1 DUP4 GT PUSH3 0x54C JUMPI DUP3 SWAP1 SUB PUSH1 0x1F AND DUP3 ADD SWAP2 JUMPDEST POP POP POP POP PUSH1 0x2 DUP4 ADD SLOAD PUSH1 0x3 DUP5 ADD SLOAD PUSH1 0x4 DUP6 ADD SLOAD PUSH1 0x5 SWAP1 SWAP6 ADD SLOAD SWAP4 SWAP5 PUSH1 0x1 PUSH1 0x1 PUSH1 0xA0 SHL SUB SWAP1 SWAP3 AND SWAP4 SWAP1 SWAP3 POP PUSH1 0xFF AND DUP7 JUMP JUMPDEST PUSH1 0x0 DUP2 DUP2 MSTORE PUSH1 0x2 PUSH1 0x20 MSTORE PUSH1 0x40 DUP2 KECCAK256 PUSH1 0x5 DUP2 ADD SLOAD PUSH1 0xFF AND PUSH3 0x5CF JUMPI PUSH1 0x40 MLOAD PUSH3 0x461BCD PUSH1 0xE5 SHL DUP2 MSTORE PUSH1 0x4 ADD PUSH3 0x32D SWAP1 PUSH3 0x103C JUMP JUMPDEST PUSH1 0x2 ADD SLOAD PUSH1 0x1 PUSH1 0x1 PUSH1 0xA0 SHL SUB AND SWAP3 SWAP2 POP POP JUMP JUMPDEST PUSH1 0x0 SWAP2 DUP3 MSTORE PUSH1 0x20 DUP3 DUP2 MSTORE PUSH1 0x40 DUP1 DUP5 KECCAK256 PUSH1 0x1 PUSH1 0x1 PUSH1 0xA0 SHL SUB SWAP4 SWAP1 SWAP4 AND DUP5 MSTORE SWAP2 SWAP1 MSTORE SWAP1 KECCAK256 SLOAD PUSH1 0xFF AND SWAP1 JUMP JUMPDEST PUSH3 0x618 PUSH1 0x0 CALLER PUSH3 0x5E2 JUMP JUMPDEST PUSH3 0x637 JUMPI PUSH1 0x40 MLOAD PUSH3 0x461BCD PUSH1 0xE5 SHL DUP2 MSTORE PUSH1 0x4 ADD PUSH3 0x32D SWAP1 PUSH3 0x1005 JUMP JUMPDEST PUSH1 0x0 DUP2 DUP2 MSTORE PUSH1 0x2 PUSH1 0x20 MSTORE PUSH1 0x40 SWAP1 KECCAK256 PUSH1 0x5 DUP2 ADD SLOAD PUSH1 0xFF AND PUSH3 0x66C JUMPI PUSH1 0x40 MLOAD PUSH3 0x461BCD PUSH1 0xE5 SHL DUP2 MSTORE PUSH1 0x4 ADD PUSH3 0x32D SWAP1 PUSH3 0x103C JUMP JUMPDEST PUSH1 0x2 DUP2 ADD SLOAD PUSH1 0x40 DUP1 MLOAD PUSH4 0x1D23E5B PUSH1 0xE5 SHL DUP2 MSTORE SWAP1 MLOAD PUSH1 0x1 PUSH1 0x1 PUSH1 0xA0 SHL SUB SWAP1 SWAP3 AND SWAP2 DUP3 SWAP2 PUSH4 0x3A47CB60 SWAP2 PUSH1 0x4 DUP1 DUP4 ADD SWAP3 PUSH1 0x0 SWAP3 SWAP2 SWAP1 DUP3 SWAP1 SUB ADD DUP2 DUP4 DUP8 DUP1 EXTCODESIZE ISZERO DUP1 ISZERO PUSH3 0x6B6 JUMPI PUSH1 0x0 DUP1 REVERT JUMPDEST POP GAS CALL ISZERO DUP1 ISZERO PUSH3 0x6CB JUMPI RETURNDATASIZE PUSH1 0x0 DUP1 RETURNDATACOPY RETURNDATASIZE PUSH1 0x0 REVERT JUMPDEST POP POP PUSH1 0x40 MLOAD DUP6 SWAP3 POP PUSH32 0x562CD572B2BA3B666CD989FC4CA98419EC81E75F04528DF9D9D76FDB7807EE71 SWAP2 POP PUSH1 0x0 SWAP1 LOG2 POP POP POP JUMP JUMPDEST PUSH1 0x0 DUP2 DUP2 MSTORE PUSH1 0x2 PUSH1 0x20 MSTORE PUSH1 0x40 DUP2 KECCAK256 PUSH1 0x5 DUP2 ADD SLOAD PUSH1 0x60 SWAP3 SWAP2 DUP3 SWAP2 DUP3 SWAP2 SWAP1 PUSH1 0xFF AND PUSH3 0x73D JUMPI PUSH1 0x40 MLOAD PUSH3 0x461BCD PUSH1 0xE5 SHL DUP2 MSTORE PUSH1 0x4 ADD PUSH3 0x32D SWAP1 PUSH3 0x103C JUMP JUMPDEST PUSH1 0x3 DUP2 ADD SLOAD PUSH1 0x4 DUP3 ADD SLOAD PUSH1 0x2 DUP4 ADD SLOAD PUSH1 0x1 DUP5 ADD DUP1 SLOAD SWAP1 SWAP4 SWAP3 SWAP2 PUSH1 0x1 PUSH1 0x1 PUSH1 0xA0 SHL SUB AND SWAP1 DUP5 SWAP1 PUSH3 0x76D SWAP1 PUSH3 0x107E JUMP JUMPDEST DUP1 PUSH1 0x1F ADD PUSH1 0x20 DUP1 SWAP2 DIV MUL PUSH1 0x20 ADD PUSH1 0x40 MLOAD SWAP1 DUP2 ADD PUSH1 0x40 MSTORE DUP1 SWAP3 SWAP2 SWAP1 DUP2 DUP2 MSTORE PUSH1 0x20 ADD DUP3 DUP1 SLOAD PUSH3 0x79B SWAP1 PUSH3 0x107E JUMP JUMPDEST DUP1 ISZERO PUSH3 0x7EC JUMPI DUP1 PUSH1 0x1F LT PUSH3 0x7C0 JUMPI PUSH2 0x100 DUP1 DUP4 SLOAD DIV MUL DUP4 MSTORE SWAP2 PUSH1 0x20 ADD SWAP2 PUSH3 0x7EC JUMP JUMPDEST DUP3 ADD SWAP2 SWAP1 PUSH1 0x0 MSTORE PUSH1 0x20 PUSH1 0x0 KECCAK256 SWAP1 JUMPDEST DUP2 SLOAD DUP2 MSTORE SWAP1 PUSH1 0x1 ADD SWAP1 PUSH1 0x20 ADD DUP1 DUP4 GT PUSH3 0x7CE JUMPI DUP3 SWAP1 SUB PUSH1 0x1F AND DUP3 ADD SWAP2 JUMPDEST POP POP POP POP POP SWAP4 POP SWAP5 POP SWAP5 POP SWAP5 POP SWAP5 POP POP SWAP2 SWAP4 POP SWAP2 SWAP4 JUMP JUMPDEST PUSH1 0x0 DUP3 DUP2 MSTORE PUSH1 0x20 DUP2 SWAP1 MSTORE PUSH1 0x40 SWAP1 KECCAK256 PUSH1 0x1 ADD SLOAD PUSH3 0x820 DUP2 PUSH3 0xA1B JUMP JUMPDEST PUSH3 0x440 DUP4 DUP4 PUSH3 0xAB2 JUMP JUMPDEST PUSH1 0x0 PUSH3 0x83A DUP2 CALLER PUSH3 0x5E2 JUMP JUMPDEST PUSH3 0x859 JUMPI PUSH1 0x40 MLOAD PUSH3 0x461BCD PUSH1 0xE5 SHL DUP2 MSTORE PUSH1 0x4 ADD PUSH3 0x32D SWAP1 PUSH3 0x1005 JUMP JUMPDEST DUP2 DUP4 LT PUSH3 0x8AA JUMPI PUSH1 0x40 MLOAD PUSH3 0x461BCD PUSH1 0xE5 SHL DUP2 MSTORE PUSH1 0x20 PUSH1 0x4 DUP3 ADD MSTORE PUSH1 0x1E PUSH1 0x24 DUP3 ADD MSTORE PUSH32 0x456C656374696F6E3A207374617274203C20656E642072657175697265640000 PUSH1 0x44 DUP3 ADD MSTORE PUSH1 0x64 ADD PUSH3 0x32D JUMP JUMPDEST PUSH1 0x1 DUP1 SLOAD SWAP1 PUSH1 0x0 PUSH3 0x8BC DUP4 PUSH3 0x10D0 JUMP JUMPDEST SWAP1 SWAP2 SSTORE POP POP PUSH1 0x1 SLOAD PUSH1 0x3 SLOAD PUSH1 0x40 MLOAD PUSH1 0x0 SWAP2 PUSH1 0x1 PUSH1 0x1 PUSH1 0xA0 SHL SUB AND SWAP1 DUP4 SWAP1 DUP9 SWAP1 DUP9 SWAP1 DUP9 SWAP1 PUSH3 0x8EA SWAP1 PUSH3 0xD52 JUMP JUMPDEST PUSH3 0x8FA SWAP6 SWAP5 SWAP4 SWAP3 SWAP2 SWAP1 PUSH3 0x10EC JUMP JUMPDEST PUSH1 0x40 MLOAD DUP1 SWAP2 SUB SWAP1 PUSH1 0x0 CREATE DUP1 ISZERO DUP1 ISZERO PUSH3 0x917 JUMPI RETURNDATASIZE PUSH1 0x0 DUP1 RETURNDATACOPY RETURNDATASIZE PUSH1 0x0 REVERT JUMPDEST POP PUSH1 0x40 DUP1 MLOAD PUSH1 0xC0 DUP2 ADD DUP3 MSTORE DUP5 DUP2 MSTORE PUSH1 0x20 DUP1 DUP3 ADD DUP11 DUP2 MSTORE PUSH1 0x1 PUSH1 0x1 PUSH1 0xA0 SHL SUB DUP6 AND DUP4 DUP6 ADD MSTORE PUSH1 0x60 DUP4 ADD DUP11 SWAP1 MSTORE PUSH1 0x80 DUP4 ADD DUP10 SWAP1 MSTORE PUSH1 0x1 PUSH1 0xA0 DUP5 ADD DUP2 SWAP1 MSTORE PUSH1 0x0 DUP9 DUP2 MSTORE PUSH1 0x2 SWAP1 SWAP4 MSTORE SWAP4 SWAP1 SWAP2 KECCAK256 DUP3 MLOAD DUP2 SSTORE SWAP1 MLOAD SWAP4 SWAP5 POP SWAP1 SWAP3 SWAP1 SWAP2 DUP3 ADD SWAP1 PUSH3 0x97C SWAP1 DUP3 PUSH3 0x117D JUMP JUMPDEST POP PUSH1 0x40 DUP3 DUP2 ADD MLOAD PUSH1 0x2 DUP4 ADD DUP1 SLOAD PUSH1 0x1 PUSH1 0x1 PUSH1 0xA0 SHL SUB NOT AND PUSH1 0x1 PUSH1 0x1 PUSH1 0xA0 SHL SUB SWAP1 SWAP3 AND SWAP2 SWAP1 SWAP2 OR SWAP1 SSTORE PUSH1 0x60 DUP4 ADD MLOAD PUSH1 0x3 DUP4 ADD SSTORE PUSH1 0x80 DUP4 ADD MLOAD PUSH1 0x4 DUP4 ADD SSTORE PUSH1 0xA0 SWAP1 SWAP3 ADD MLOAD PUSH1 0x5 SWAP1 SWAP2 ADD DUP1 SLOAD PUSH1 0xFF NOT AND SWAP2 ISZERO ISZERO SWAP2 SWAP1 SWAP2 OR SWAP1 SSTORE MLOAD DUP3 SWAP1 PUSH32 0xB7E3DDF74A01983ED95EE8D25463572052B3548F0E02733018C5703ECDCBD71F SWAP1 PUSH3 0xA0A SWAP1 DUP5 SWAP1 DUP11 SWAP1 DUP11 SWAP1 DUP11 SWAP1 PUSH3 0x124A JUMP JUMPDEST PUSH1 0x40 MLOAD DUP1 SWAP2 SUB SWAP1 LOG2 POP SWAP5 SWAP4 POP POP POP POP JUMP JUMPDEST PUSH3 0xA27 DUP2 CALLER PUSH3 0xB1A JUMP JUMPDEST POP JUMP JUMPDEST PUSH3 0xA36 DUP3 DUP3 PUSH3 0x5E2 JUMP JUMPDEST PUSH3 0x4C3 JUMPI PUSH1 0x0 DUP3 DUP2 MSTORE PUSH1 0x20 DUP2 DUP2 MSTORE PUSH1 0x40 DUP1 DUP4 KECCAK256 PUSH1 0x1 PUSH1 0x1 PUSH1 0xA0 SHL SUB DUP6 AND DUP5 MSTORE SWAP1 SWAP2 MSTORE SWAP1 KECCAK256 DUP1 SLOAD PUSH1 0xFF NOT AND PUSH1 0x1 OR SWAP1 SSTORE PUSH3 0xA6E CALLER SWAP1 JUMP JUMPDEST PUSH1 0x1 PUSH1 0x1 PUSH1 0xA0 SHL SUB AND DUP2 PUSH1 0x1 PUSH1 0x1 PUSH1 0xA0 SHL SUB AND DUP4 PUSH32 0x2F8788117E7EFF1D82E926EC794901D17C78024A50270940304540A733656F0D PUSH1 0x40 MLOAD PUSH1 0x40 MLOAD DUP1 SWAP2 SUB SWAP1 LOG4 POP POP JUMP JUMPDEST PUSH3 0xABE DUP3 DUP3 PUSH3 0x5E2 JUMP JUMPDEST ISZERO PUSH3 0x4C3 JUMPI PUSH1 0x0 DUP3 DUP2 MSTORE PUSH1 0x20 DUP2 DUP2 MSTORE PUSH1 0x40 DUP1 DUP4 KECCAK256 PUSH1 0x1 PUSH1 0x1 PUSH1 0xA0 SHL SUB DUP6 AND DUP1 DUP6 MSTORE SWAP3 MSTORE DUP1 DUP4 KECCAK256 DUP1 SLOAD PUSH1 0xFF NOT AND SWAP1 SSTORE MLOAD CALLER SWAP3 DUP6 SWAP2 PUSH32 0xF6391F5C32D9C69D2A47EA670B442974B53935D1EDC7FD64EB21E047A839171B SWAP2 SWAP1 LOG4 POP POP JUMP JUMPDEST PUSH3 0xB26 DUP3 DUP3 PUSH3 0x5E2 JUMP JUMPDEST PUSH3 0x4C3 JUMPI PUSH3 0xB36 DUP2 PUSH3 0xB7E JUMP JUMPDEST PUSH3 0xB43 DUP4 PUSH1 0x20 PUSH3 0xB91 JUMP JUMPDEST PUSH1 0x40 MLOAD PUSH1 0x20 ADD PUSH3 0xB56 SWAP3 SWAP2 SWAP1 PUSH3 0x1283 JUMP JUMPDEST PUSH1 0x40 DUP1 MLOAD PUSH1 0x1F NOT DUP2 DUP5 SUB ADD DUP2 MSTORE SWAP1 DUP3 SWAP1 MSTORE PUSH3 0x461BCD PUSH1 0xE5 SHL DUP3 MSTORE PUSH3 0x32D SWAP2 PUSH1 0x4 ADD PUSH3 0x1069 JUMP JUMPDEST PUSH1 0x60 PUSH3 0x2FB PUSH1 0x1 PUSH1 0x1 PUSH1 0xA0 SHL SUB DUP4 AND PUSH1 0x14 JUMPDEST PUSH1 0x60 PUSH1 0x0 PUSH3 0xBA2 DUP4 PUSH1 0x2 PUSH3 0x12FC JUMP JUMPDEST PUSH3 0xBAF SWAP1 PUSH1 0x2 PUSH3 0x1316 JUMP JUMPDEST PUSH8 0xFFFFFFFFFFFFFFFF DUP2 GT ISZERO PUSH3 0xBCA JUMPI PUSH3 0xBCA PUSH3 0xD8C JUMP JUMPDEST PUSH1 0x40 MLOAD SWAP1 DUP1 DUP3 MSTORE DUP1 PUSH1 0x1F ADD PUSH1 0x1F NOT AND PUSH1 0x20 ADD DUP3 ADD PUSH1 0x40 MSTORE DUP1 ISZERO PUSH3 0xBF5 JUMPI PUSH1 0x20 DUP3 ADD DUP2 DUP1 CALLDATASIZE DUP4 CALLDATACOPY ADD SWAP1 POP JUMPDEST POP SWAP1 POP PUSH1 0x3 PUSH1 0xFC SHL DUP2 PUSH1 0x0 DUP2 MLOAD DUP2 LT PUSH3 0xC13 JUMPI PUSH3 0xC13 PUSH3 0x132C JUMP JUMPDEST PUSH1 0x20 ADD ADD SWAP1 PUSH1 0x1 PUSH1 0x1 PUSH1 0xF8 SHL SUB NOT AND SWAP1 DUP2 PUSH1 0x0 BYTE SWAP1 MSTORE8 POP PUSH1 0xF PUSH1 0xFB SHL DUP2 PUSH1 0x1 DUP2 MLOAD DUP2 LT PUSH3 0xC45 JUMPI PUSH3 0xC45 PUSH3 0x132C JUMP JUMPDEST PUSH1 0x20 ADD ADD SWAP1 PUSH1 0x1 PUSH1 0x1 PUSH1 0xF8 SHL SUB NOT AND SWAP1 DUP2 PUSH1 0x0 BYTE SWAP1 MSTORE8 POP PUSH1 0x0 PUSH3 0xC6B DUP5 PUSH1 0x2 PUSH3 0x12FC JUMP JUMPDEST PUSH3 0xC78 SWAP1 PUSH1 0x1 PUSH3 0x1316 JUMP JUMPDEST SWAP1 POP JUMPDEST PUSH1 0x1 DUP2 GT ISZERO PUSH3 0xCFA JUMPI PUSH16 0x181899199A1A9B1B9C1CB0B131B232B3 PUSH1 0x81 SHL DUP6 PUSH1 0xF AND PUSH1 0x10 DUP2 LT PUSH3 0xCB0 JUMPI PUSH3 0xCB0 PUSH3 0x132C JUMP JUMPDEST BYTE PUSH1 0xF8 SHL DUP3 DUP3 DUP2 MLOAD DUP2 LT PUSH3 0xCC9 JUMPI PUSH3 0xCC9 PUSH3 0x132C JUMP JUMPDEST PUSH1 0x20 ADD ADD SWAP1 PUSH1 0x1 PUSH1 0x1 PUSH1 0xF8 SHL SUB NOT AND SWAP1 DUP2 PUSH1 0x0 BYTE SWAP1 MSTORE8 POP PUSH1 0x4 SWAP5 SWAP1 SWAP5 SHR SWAP4 PUSH3 0xCF2 DUP2 PUSH3 0x1342 JUMP JUMPDEST SWAP1 POP PUSH3 0xC7B JUMP JUMPDEST POP DUP4 ISZERO PUSH3 0xD4B JUMPI PUSH1 0x40 MLOAD PUSH3 0x461BCD PUSH1 0xE5 SHL DUP2 MSTORE PUSH1 0x20 PUSH1 0x4 DUP3 ADD DUP2 SWAP1 MSTORE PUSH1 0x24 DUP3 ADD MSTORE PUSH32 0x537472696E67733A20686578206C656E67746820696E73756666696369656E74 PUSH1 0x44 DUP3 ADD MSTORE PUSH1 0x64 ADD PUSH3 0x32D JUMP JUMPDEST SWAP4 SWAP3 POP POP POP JUMP JUMPDEST PUSH2 0x123B DUP1 PUSH3 0x135D DUP4 CODECOPY ADD SWAP1 JUMP JUMPDEST PUSH1 0x0 PUSH1 0x20 DUP3 DUP5 SUB SLT ISZERO PUSH3 0xD73 JUMPI PUSH1 0x0 DUP1 REVERT JUMPDEST DUP2 CALLDATALOAD PUSH1 0x1 PUSH1 0x1 PUSH1 0xE0 SHL SUB NOT DUP2 AND DUP2 EQ PUSH3 0xD4B JUMPI PUSH1 0x0 DUP1 REVERT JUMPDEST PUSH4 0x4E487B71 PUSH1 0xE0 SHL PUSH1 0x0 MSTORE PUSH1 0x41 PUSH1 0x4 MSTORE PUSH1 0x24 PUSH1 0x0 REVERT JUMPDEST PUSH1 0x0 DUP3 PUSH1 0x1F DUP4 ADD SLT PUSH3 0xDB4 JUMPI PUSH1 0x0 DUP1 REVERT JUMPDEST DUP2 CALLDATALOAD PUSH8 0xFFFFFFFFFFFFFFFF DUP1 DUP3 GT ISZERO PUSH3 0xDD2 JUMPI PUSH3 0xDD2 PUSH3 0xD8C JUMP JUMPDEST PUSH1 0x40 MLOAD PUSH1 0x1F DUP4 ADD PUSH1 0x1F NOT SWAP1 DUP2 AND PUSH1 0x3F ADD AND DUP2 ADD SWAP1 DUP3 DUP3 GT DUP2 DUP4 LT OR ISZERO PUSH3 0xDFD JUMPI PUSH3 0xDFD PUSH3 0xD8C JUMP JUMPDEST DUP2 PUSH1 0x40 MSTORE DUP4 DUP2 MSTORE DUP7 PUSH1 0x20 DUP6 DUP9 ADD ADD GT ISZERO PUSH3 0xE17 JUMPI PUSH1 0x0 DUP1 REVERT JUMPDEST DUP4 PUSH1 0x20 DUP8 ADD PUSH1 0x20 DUP4 ADD CALLDATACOPY PUSH1 0x0 PUSH1 0x20 DUP6 DUP4 ADD ADD MSTORE DUP1 SWAP5 POP POP POP POP POP SWAP3 SWAP2 POP POP JUMP JUMPDEST PUSH1 0x0 DUP1 PUSH1 0x40 DUP4 DUP6 SUB SLT ISZERO PUSH3 0xE4B JUMPI PUSH1 0x0 DUP1 REVERT JUMPDEST DUP3 CALLDATALOAD SWAP2 POP PUSH1 0x20 DUP4 ADD CALLDATALOAD PUSH8 0xFFFFFFFFFFFFFFFF DUP2 GT ISZERO PUSH3 0xE6A JUMPI PUSH1 0x0 DUP1 REVERT JUMPDEST PUSH3 0xE78 DUP6 DUP3 DUP7 ADD PUSH3 0xDA2 JUMP JUMPDEST SWAP2 POP POP SWAP3 POP SWAP3 SWAP1 POP JUMP JUMPDEST PUSH1 0x0 PUSH1 0x20 DUP3 DUP5 SUB SLT ISZERO PUSH3 0xE95 JUMPI PUSH1 0x0 DUP1 REVERT JUMPDEST POP CALLDATALOAD SWAP2 SWAP1 POP JUMP JUMPDEST PUSH1 0x0 DUP1 PUSH1 0x40 DUP4 DUP6 SUB SLT ISZERO PUSH3 0xEB0 JUMPI PUSH1 0x0 DUP1 REVERT JUMPDEST DUP3 CALLDATALOAD SWAP2 POP PUSH1 0x20 DUP4 ADD CALLDATALOAD PUSH1 0x1 PUSH1 0x1 PUSH1 0xA0 SHL SUB DUP2 AND DUP2 EQ PUSH3 0xECF JUMPI PUSH1 0x0 DUP1 REVERT JUMPDEST DUP1 SWAP2 POP POP SWAP3 POP SWAP3 SWAP1 POP JUMP JUMPDEST PUSH1 0x0 JUMPDEST DUP4 DUP2 LT ISZERO PUSH3 0xEF7 JUMPI DUP2 DUP2 ADD MLOAD DUP4 DUP3 ADD MSTORE PUSH1 0x20 ADD PUSH3 0xEDD JUMP JUMPDEST POP POP PUSH1 0x0 SWAP2 ADD MSTORE JUMP JUMPDEST PUSH1 0x0 DUP2 MLOAD DUP1 DUP5 MSTORE PUSH3 0xF1A DUP2 PUSH1 0x20 DUP7 ADD PUSH1 0x20 DUP7 ADD PUSH3 0xEDA JUMP JUMPDEST PUSH1 0x1F ADD PUSH1 0x1F NOT AND SWAP3 SWAP1 SWAP3 ADD PUSH1 0x20 ADD SWAP3 SWAP2 POP POP JUMP JUMPDEST DUP7 DUP2 MSTORE PUSH1 0xC0 PUSH1 0x20 DUP3 ADD MSTORE PUSH1 0x0 PUSH3 0xF49 PUSH1 0xC0 DUP4 ADD DUP9 PUSH3 0xF00 JUMP JUMPDEST PUSH1 0x1 PUSH1 0x1 PUSH1 0xA0 SHL SUB SWAP7 SWAP1 SWAP7 AND PUSH1 0x40 DUP4 ADD MSTORE POP PUSH1 0x60 DUP2 ADD SWAP4 SWAP1 SWAP4 MSTORE PUSH1 0x80 DUP4 ADD SWAP2 SWAP1 SWAP2 MSTORE ISZERO ISZERO PUSH1 0xA0 SWAP1 SWAP2 ADD MSTORE SWAP3 SWAP2 POP POP JUMP JUMPDEST PUSH1 0x80 DUP2 MSTORE PUSH1 0x0 PUSH3 0xF8E PUSH1 0x80 DUP4 ADD DUP8 PUSH3 0xF00 JUMP JUMPDEST PUSH1 0x20 DUP4 ADD SWAP6 SWAP1 SWAP6 MSTORE POP PUSH1 0x40 DUP2 ADD SWAP3 SWAP1 SWAP3 MSTORE PUSH1 0x1 PUSH1 0x1 PUSH1 0xA0 SHL SUB AND PUSH1 0x60 SWAP1 SWAP2 ADD MSTORE SWAP2 SWAP1 POP JUMP JUMPDEST PUSH1 0x0 DUP1 PUSH1 0x0 PUSH1 0x60 DUP5 DUP7 SUB SLT ISZERO PUSH3 0xFC9 JUMPI PUSH1 0x0 DUP1 REVERT JUMPDEST DUP4 CALLDATALOAD PUSH8 0xFFFFFFFFFFFFFFFF DUP2 GT ISZERO PUSH3 0xFE1 JUMPI PUSH1 0x0 DUP1 REVERT JUMPDEST PUSH3 0xFEF DUP7 DUP3 DUP8 ADD PUSH3 0xDA2 JUMP JUMPDEST SWAP7 PUSH1 0x20 DUP7 ADD CALLDATALOAD SWAP7 POP PUSH1 0x40 SWAP1 SWAP6 ADD CALLDATALOAD SWAP5 SWAP4 POP POP POP POP JUMP JUMPDEST PUSH1 0x20 DUP1 DUP3 MSTORE PUSH1 0x1E SWAP1 DUP3 ADD MSTORE PUSH32 0x456C656374696F6E3A207265737472696374656420746F2061646D696E730000 PUSH1 0x40 DUP3 ADD MSTORE PUSH1 0x60 ADD SWAP1 JUMP JUMPDEST PUSH1 0x20 DUP1 DUP3 MSTORE PUSH1 0x13 SWAP1 DUP3 ADD MSTORE PUSH19 0x115B1958DD1A5BDB8E881B9BDD08199BDD5B99 PUSH1 0x6A SHL PUSH1 0x40 DUP3 ADD MSTORE PUSH1 0x60 ADD SWAP1 JUMP JUMPDEST PUSH1 0x20 DUP2 MSTORE PUSH1 0x0 PUSH3 0xD4B PUSH1 0x20 DUP4 ADD DUP5 PUSH3 0xF00 JUMP JUMPDEST PUSH1 0x1 DUP2 DUP2 SHR SWAP1 DUP3 AND DUP1 PUSH3 0x1093 JUMPI PUSH1 0x7F DUP3 AND SWAP2 POP JUMPDEST PUSH1 0x20 DUP3 LT DUP2 SUB PUSH3 0x10B4 JUMPI PUSH4 0x4E487B71 PUSH1 0xE0 SHL PUSH1 0x0 MSTORE PUSH1 0x22 PUSH1 0x4 MSTORE PUSH1 0x24 PUSH1 0x0 REVERT JUMPDEST POP SWAP2 SWAP1 POP JUMP JUMPDEST PUSH4 0x4E487B71 PUSH1 0xE0 SHL PUSH1 0x0 MSTORE PUSH1 0x11 PUSH1 0x4 MSTORE PUSH1 0x24 PUSH1 0x0 REVERT JUMPDEST PUSH1 0x0 PUSH1 0x1 DUP3 ADD PUSH3 0x10E5 JUMPI PUSH3 0x10E5 PUSH3 0x10BA JUMP JUMPDEST POP PUSH1 0x1 ADD SWAP1 JUMP JUMPDEST PUSH1 0x1 DUP1 PUSH1 0xA0 SHL SUB DUP7 AND DUP2 MSTORE DUP5 PUSH1 0x20 DUP3 ADD MSTORE PUSH1 0xA0 PUSH1 0x40 DUP3 ADD MSTORE PUSH1 0x0 PUSH3 0x1115 PUSH1 0xA0 DUP4 ADD DUP7 PUSH3 0xF00 JUMP JUMPDEST PUSH1 0x60 DUP4 ADD SWAP5 SWAP1 SWAP5 MSTORE POP PUSH1 0x80 ADD MSTORE SWAP4 SWAP3 POP POP POP JUMP JUMPDEST PUSH1 0x1F DUP3 GT ISZERO PUSH3 0x440 JUMPI PUSH1 0x0 DUP2 PUSH1 0x0 MSTORE PUSH1 0x20 PUSH1 0x0 KECCAK256 PUSH1 0x1F DUP6 ADD PUSH1 0x5 SHR DUP2 ADD PUSH1 0x20 DUP7 LT ISZERO PUSH3 0x1154 JUMPI POP DUP1 JUMPDEST PUSH1 0x1F DUP6 ADD PUSH1 0x5 SHR DUP3 ADD SWAP2 POP JUMPDEST DUP2 DUP2 LT ISZERO PUSH3 0x1175 JUMPI DUP3 DUP2 SSTORE PUSH1 0x1 ADD PUSH3 0x1160 JUMP JUMPDEST POP POP POP POP POP POP JUMP JUMPDEST DUP2 MLOAD PUSH8 0xFFFFFFFFFFFFFFFF DUP2 GT ISZERO PUSH3 0x119A JUMPI PUSH3 0x119A PUSH3 0xD8C JUMP JUMPDEST PUSH3 0x11B2 DUP2 PUSH3 0x11AB DUP5 SLOAD PUSH3 0x107E JUMP JUMPDEST DUP5 PUSH3 0x1129 JUMP JUMPDEST PUSH1 0x20 DUP1 PUSH1 0x1F DUP4 GT PUSH1 0x1 DUP2 EQ PUSH3 0x11EA JUMPI PUSH1 0x0 DUP5 ISZERO PUSH3 0x11D1 JUMPI POP DUP6 DUP4 ADD MLOAD JUMPDEST PUSH1 0x0 NOT PUSH1 0x3 DUP7 SWAP1 SHL SHR NOT AND PUSH1 0x1 DUP6 SWAP1 SHL OR DUP6 SSTORE PUSH3 0x1175 JUMP JUMPDEST PUSH1 0x0 DUP6 DUP2 MSTORE PUSH1 0x20 DUP2 KECCAK256 PUSH1 0x1F NOT DUP7 AND SWAP2 JUMPDEST DUP3 DUP2 LT ISZERO PUSH3 0x121B JUMPI DUP9 DUP7 ADD MLOAD DUP3 SSTORE SWAP5 DUP5 ADD SWAP5 PUSH1 0x1 SWAP1 SWAP2 ADD SWAP1 DUP5 ADD PUSH3 0x11FA JUMP JUMPDEST POP DUP6 DUP3 LT ISZERO PUSH3 0x123A JUMPI DUP8 DUP6 ADD MLOAD PUSH1 0x0 NOT PUSH1 0x3 DUP9 SWAP1 SHL PUSH1 0xF8 AND SHR NOT AND DUP2 SSTORE JUMPDEST POP POP POP POP POP PUSH1 0x1 SWAP1 DUP2 SHL ADD SWAP1 SSTORE POP JUMP JUMPDEST PUSH1 0x1 PUSH1 0x1 PUSH1 0xA0 SHL SUB DUP6 AND DUP2 MSTORE PUSH1 0x80 PUSH1 0x20 DUP3 ADD DUP2 SWAP1 MSTORE PUSH1 0x0 SWAP1 PUSH3 0x1270 SWAP1 DUP4 ADD DUP7 PUSH3 0xF00 JUMP JUMPDEST PUSH1 0x40 DUP4 ADD SWAP5 SWAP1 SWAP5 MSTORE POP PUSH1 0x60 ADD MSTORE SWAP3 SWAP2 POP POP JUMP JUMPDEST PUSH32 0x416363657373436F6E74726F6C3A206163636F756E7420000000000000000000 DUP2 MSTORE PUSH1 0x0 DUP4 MLOAD PUSH3 0x12BD DUP2 PUSH1 0x17 DUP6 ADD PUSH1 0x20 DUP9 ADD PUSH3 0xEDA JUMP JUMPDEST PUSH17 0x1034B99036B4B9B9B4B733903937B6329 PUSH1 0x7D SHL PUSH1 0x17 SWAP2 DUP5 ADD SWAP2 DUP3 ADD MSTORE DUP4 MLOAD PUSH3 0x12F0 DUP2 PUSH1 0x28 DUP5 ADD PUSH1 0x20 DUP9 ADD PUSH3 0xEDA JUMP JUMPDEST ADD PUSH1 0x28 ADD SWAP5 SWAP4 POP POP POP POP JUMP JUMPDEST DUP1 DUP3 MUL DUP2 ISZERO DUP3 DUP3 DIV DUP5 EQ OR PUSH3 0x2FB JUMPI PUSH3 0x2FB PUSH3 0x10BA JUMP JUMPDEST DUP1 DUP3 ADD DUP1 DUP3 GT ISZERO PUSH3 0x2FB JUMPI PUSH3 0x2FB PUSH3 0x10BA JUMP JUMPDEST PUSH4 0x4E487B71 PUSH1 0xE0 SHL PUSH1 0x0 MSTORE PUSH1 0x32 PUSH1 0x4 MSTORE PUSH1 0x24 PUSH1 0x0 REVERT JUMPDEST PUSH1 0x0 DUP2 PUSH3 0x1354 JUMPI PUSH3 0x1354 PUSH3 0x10BA JUMP JUMPDEST POP PUSH1 0x0 NOT ADD SWAP1 JUMP INVALID PUSH1 0x80 PUSH1 0x40 MSTORE CALLVALUE DUP1 ISZERO PUSH3 0x11 JUMPI PUSH1 0x0 DUP1 REVERT JUMPDEST POP PUSH1 0x40 MLOAD PUSH3 0x123B CODESIZE SUB DUP1 PUSH3 0x123B DUP4 CODECOPY DUP2 ADD PUSH1 0x40 DUP2 SWAP1 MSTORE PUSH3 0x34 SWAP2 PUSH3 0x147 JUMP JUMPDEST PUSH1 0x1 PUSH1 0x0 SSTORE PUSH1 0x1 PUSH1 0x1 PUSH1 0xA0 SHL SUB DUP6 AND PUSH3 0x95 JUMPI PUSH1 0x40 MLOAD PUSH3 0x461BCD PUSH1 0xE5 SHL DUP2 MSTORE PUSH1 0x20 PUSH1 0x4 DUP3 ADD MSTORE PUSH1 0x18 PUSH1 0x24 DUP3 ADD MSTORE PUSH32 0x42616C6C6F743A20696E76616C69642072656769737472790000000000000000 PUSH1 0x44 DUP3 ADD MSTORE PUSH1 0x64 ADD JUMPDEST PUSH1 0x40 MLOAD DUP1 SWAP2 SUB SWAP1 REVERT JUMPDEST DUP1 DUP3 LT PUSH3 0xE6 JUMPI PUSH1 0x40 MLOAD PUSH3 0x461BCD PUSH1 0xE5 SHL DUP2 MSTORE PUSH1 0x20 PUSH1 0x4 DUP3 ADD MSTORE PUSH1 0x15 PUSH1 0x24 DUP3 ADD MSTORE PUSH32 0x42616C6C6F743A20696E76616C69642074696D65730000000000000000000000 PUSH1 0x44 DUP3 ADD MSTORE PUSH1 0x64 ADD PUSH3 0x8C JUMP JUMPDEST PUSH1 0x1 DUP1 SLOAD PUSH1 0x1 PUSH1 0x1 PUSH1 0xA0 SHL SUB NOT AND PUSH1 0x1 PUSH1 0x1 PUSH1 0xA0 SHL SUB DUP8 AND OR SWAP1 SSTORE PUSH1 0x2 DUP5 SWAP1 SSTORE PUSH1 0x3 PUSH3 0x114 DUP5 DUP3 PUSH3 0x2EA JUMP JUMPDEST POP PUSH1 0x4 SWAP2 SWAP1 SWAP2 SSTORE PUSH1 0x5 SSTORE POP POP PUSH1 0x6 DUP1 SLOAD PUSH1 0xFF NOT AND SWAP1 SSTORE POP PUSH3 0x3B6 JUMP JUMPDEST PUSH4 0x4E487B71 PUSH1 0xE0 SHL PUSH1 0x0 MSTORE PUSH1 0x41 PUSH1 0x4 MSTORE PUSH1 0x24 PUSH1 0x0 REVERT JUMPDEST PUSH1 0x0 DUP1 PUSH1 0x0 DUP1 PUSH1 0x0 PUSH1 0xA0 DUP7 DUP9 SUB SLT ISZERO PUSH3 0x160 JUMPI PUSH1 0x0 DUP1 REVERT JUMPDEST DUP6 MLOAD PUSH1 0x1 PUSH1 0x1 PUSH1 0xA0 SHL SUB DUP2 AND DUP2 EQ PUSH3 0x178 JUMPI PUSH1 0x0 DUP1 REVERT JUMPDEST PUSH1 0x20 DUP8 DUP2 ADD MLOAD PUSH1 0x40 DUP10 ADD MLOAD SWAP3 SWAP8 POP SWAP6 POP SWAP1 PUSH1 0x1 PUSH1 0x1 PUSH1 0x40 SHL SUB DUP1 DUP3 GT ISZERO PUSH3 0x19F JUMPI PUSH1 0x0 DUP1 REVERT JUMPDEST DUP2 DUP10 ADD SWAP2 POP DUP10 PUSH1 0x1F DUP4 ADD SLT PUSH3 0x1B4 JUMPI PUSH1 0x0 DUP1 REVERT JUMPDEST DUP2 MLOAD DUP2 DUP2 GT ISZERO PUSH3 0x1C9 JUMPI PUSH3 0x1C9 PUSH3 0x131 JUMP JUMPDEST PUSH1 0x40 MLOAD PUSH1 0x1F DUP3 ADD PUSH1 0x1F NOT SWAP1 DUP2 AND PUSH1 0x3F ADD AND DUP2 ADD SWAP1 DUP4 DUP3 GT DUP2 DUP4 LT OR ISZERO PUSH3 0x1F4 JUMPI PUSH3 0x1F4 PUSH3 0x131 JUMP JUMPDEST DUP2 PUSH1 0x40 MSTORE DUP3 DUP2 MSTORE DUP13 DUP7 DUP5 DUP8 ADD ADD GT ISZERO PUSH3 0x20D JUMPI PUSH1 0x0 DUP1 REVERT JUMPDEST PUSH1 0x0 SWAP4 POP JUMPDEST DUP3 DUP5 LT ISZERO PUSH3 0x231 JUMPI DUP5 DUP5 ADD DUP7 ADD MLOAD DUP2 DUP6 ADD DUP8 ADD MSTORE SWAP3 DUP6 ADD SWAP3 PUSH3 0x212 JUMP JUMPDEST PUSH1 0x0 SWAP3 DUP2 ADD SWAP1 SWAP6 ADD SWAP2 SWAP1 SWAP2 MSTORE POP POP POP PUSH1 0x60 DUP8 ADD MLOAD PUSH1 0x80 SWAP1 SWAP8 ADD MLOAD SWAP6 SWAP9 SWAP5 SWAP8 POP SWAP6 SWAP5 SWAP4 SWAP3 POP POP POP JUMP JUMPDEST PUSH1 0x1 DUP2 DUP2 SHR SWAP1 DUP3 AND DUP1 PUSH3 0x26E JUMPI PUSH1 0x7F DUP3 AND SWAP2 POP JUMPDEST PUSH1 0x20 DUP3 LT DUP2 SUB PUSH3 0x28F JUMPI PUSH4 0x4E487B71 PUSH1 0xE0 SHL PUSH1 0x0 MSTORE PUSH1 0x22 PUSH1 0x4 MSTORE PUSH1 0x24 PUSH1 0x0 REVERT JUMPDEST POP SWAP2 SWAP1 POP JUMP JUMPDEST PUSH1 0x1F DUP3 GT ISZERO PUSH3 0x2E5 JUMPI PUSH1 0x0 DUP2 PUSH1 0x0 MSTORE PUSH1 0x20 PUSH1 0x0 KECCAK256 PUSH1 0x1F DUP6 ADD PUSH1 0x5 SHR DUP2 ADD PUSH1 0x20 DUP7 LT ISZERO PUSH3 0x2C0 JUMPI POP DUP1 JUMPDEST PUSH1 0x1F DUP6 ADD PUSH1 0x5 SHR DUP3 ADD SWAP2 POP JUMPDEST DUP2 DUP2 LT ISZERO PUSH3 0x2E1 JUMPI DUP3 DUP2 SSTORE PUSH1 0x1 ADD PUSH3 0x2CC JUMP JUMPDEST POP POP POP JUMPDEST POP POP POP JUMP JUMPDEST DUP2 MLOAD PUSH1 0x1 PUSH1 0x1 PUSH1 0x40 SHL SUB DUP2 GT ISZERO PUSH3 0x306 JUMPI PUSH3 0x306 PUSH3 0x131 JUMP JUMPDEST PUSH3 0x31E DUP2 PUSH3 0x317 DUP5 SLOAD PUSH3 0x259 JUMP JUMPDEST DUP5 PUSH3 0x295 JUMP JUMPDEST PUSH1 0x20 DUP1 PUSH1 0x1F DUP4 GT PUSH1 0x1 DUP2 EQ PUSH3 0x356 JUMPI PUSH1 0x0 DUP5 ISZERO PUSH3 0x33D JUMPI POP DUP6 DUP4 ADD MLOAD JUMPDEST PUSH1 0x0 NOT PUSH1 0x3 DUP7 SWAP1 SHL SHR NOT AND PUSH1 0x1 DUP6 SWAP1 SHL OR DUP6 SSTORE PUSH3 0x2E1 JUMP JUMPDEST PUSH1 0x0 DUP6 DUP2 MSTORE PUSH1 0x20 DUP2 KECCAK256 PUSH1 0x1F NOT DUP7 AND SWAP2 JUMPDEST DUP3 DUP2 LT ISZERO PUSH3 0x387 JUMPI DUP9 DUP7 ADD MLOAD DUP3 SSTORE SWAP5 DUP5 ADD SWAP5 PUSH1 0x1 SWAP1 SWAP2 ADD SWAP1 DUP5 ADD PUSH3 0x366 JUMP JUMPDEST POP DUP6 DUP3 LT ISZERO PUSH3 0x3A6 JUMPI DUP8 DUP6 ADD MLOAD PUSH1 0x0 NOT PUSH1 0x3 DUP9 SWAP1 SHL PUSH1 0xF8 AND SHR NOT AND DUP2 SSTORE JUMPDEST POP POP POP POP POP PUSH1 0x1 SWAP1 DUP2 SHL ADD SWAP1 SSTORE POP JUMP JUMPDEST PUSH2 0xE75 DUP1 PUSH3 0x3C6 PUSH1 0x0 CODECOPY PUSH1 0x0 RETURN INVALID PUSH1 0x80 PUSH1 0x40 MSTORE CALLVALUE DUP1 ISZERO PUSH2 0x10 JUMPI PUSH1 0x0 DUP1 REVERT JUMPDEST POP PUSH1 0x4 CALLDATASIZE LT PUSH2 0xEA JUMPI PUSH1 0x0 CALLDATALOAD PUSH1 0xE0 SHR DUP1 PUSH4 0x462E91EC GT PUSH2 0x8C JUMPI DUP1 PUSH4 0x85E8E7A7 GT PUSH2 0x66 JUMPI DUP1 PUSH4 0x85E8E7A7 EQ PUSH2 0x1B5 JUMPI DUP1 PUSH4 0xA9A981A3 EQ PUSH2 0x1CA JUMPI DUP1 PUSH4 0xDF15C37E EQ PUSH2 0x1D3 JUMPI DUP1 PUSH4 0xE3E6CA7D EQ PUSH2 0x1E9 JUMPI PUSH1 0x0 DUP1 REVERT JUMPDEST DUP1 PUSH4 0x462E91EC EQ PUSH2 0x16E JUMPI DUP1 PUSH4 0x78E97925 EQ PUSH2 0x181 JUMPI DUP1 PUSH4 0x7B103999 EQ PUSH2 0x18A JUMPI PUSH1 0x0 DUP1 REVERT JUMPDEST DUP1 PUSH4 0xD15FD77 GT PUSH2 0xC8 JUMPI DUP1 PUSH4 0xD15FD77 EQ PUSH2 0x137 JUMPI DUP1 PUSH4 0x12FA6FEB EQ PUSH2 0x140 JUMPI DUP1 PUSH4 0x3197CBB6 EQ PUSH2 0x15D JUMPI DUP1 PUSH4 0x3A47CB60 EQ PUSH2 0x166 JUMPI PUSH1 0x0 DUP1 REVERT JUMPDEST DUP1 PUSH4 0x121B93F EQ PUSH2 0xEF JUMPI DUP1 PUSH4 0x51364D4 EQ PUSH2 0x104 JUMPI DUP1 PUSH4 0x6A49FCE EQ PUSH2 0x120 JUMPI JUMPDEST PUSH1 0x0 DUP1 REVERT JUMPDEST PUSH2 0x102 PUSH2 0xFD CALLDATASIZE PUSH1 0x4 PUSH2 0xA28 JUMP JUMPDEST PUSH2 0x215 JUMP JUMPDEST STOP JUMPDEST PUSH2 0x10D PUSH1 0x2 SLOAD DUP2 JUMP JUMPDEST PUSH1 0x40 MLOAD SWAP1 DUP2 MSTORE PUSH1 0x20 ADD JUMPDEST PUSH1 0x40 MLOAD DUP1 SWAP2 SUB SWAP1 RETURN JUMPDEST PUSH2 0x128 PUSH2 0x4BF JUMP JUMPDEST PUSH1 0x40 MLOAD PUSH2 0x117 SWAP4 SWAP3 SWAP2 SWAP1 PUSH2 0xAC3 JUMP JUMPDEST PUSH2 0x10D PUSH1 0x8 SLOAD DUP2 JUMP JUMPDEST PUSH1 0x6 SLOAD PUSH2 0x14D SWAP1 PUSH1 0xFF AND DUP2 JUMP JUMPDEST PUSH1 0x40 MLOAD SWAP1 ISZERO ISZERO DUP2 MSTORE PUSH1 0x20 ADD PUSH2 0x117 JUMP JUMPDEST PUSH2 0x10D PUSH1 0x5 SLOAD DUP2 JUMP JUMPDEST PUSH2 0x102 PUSH2 0x6CE JUMP JUMPDEST PUSH2 0x102 PUSH2 0x17C CALLDATASIZE PUSH1 0x4 PUSH2 0xB5E JUMP JUMPDEST PUSH2 0x706 JUMP JUMPDEST PUSH2 0x10D PUSH1 0x4 SLOAD DUP2 JUMP JUMPDEST PUSH1 0x1 SLOAD PUSH2 0x19D SWAP1 PUSH1 0x1 PUSH1 0x1 PUSH1 0xA0 SHL SUB AND DUP2 JUMP JUMPDEST PUSH1 0x40 MLOAD PUSH1 0x1 PUSH1 0x1 PUSH1 0xA0 SHL SUB SWAP1 SWAP2 AND DUP2 MSTORE PUSH1 0x20 ADD PUSH2 0x117 JUMP JUMPDEST PUSH2 0x1BD PUSH2 0x7A9 JUMP JUMPDEST PUSH1 0x40 MLOAD PUSH2 0x117 SWAP2 SWAP1 PUSH2 0xC0F JUMP JUMPDEST PUSH2 0x10D PUSH1 0x7 SLOAD DUP2 JUMP JUMPDEST PUSH2 0x1DB PUSH2 0x837 JUMP JUMPDEST PUSH1 0x40 MLOAD PUSH2 0x117 SWAP3 SWAP2 SWAP1 PUSH2 0xC29 JUMP JUMPDEST PUSH2 0x14D PUSH2 0x1F7 CALLDATASIZE PUSH1 0x4 PUSH2 0xC4B JUMP JUMPDEST PUSH1 0x1 PUSH1 0x1 PUSH1 0xA0 SHL SUB AND PUSH1 0x0 SWAP1 DUP2 MSTORE PUSH1 0xA PUSH1 0x20 MSTORE PUSH1 0x40 SWAP1 KECCAK256 SLOAD PUSH1 0xFF AND SWAP1 JUMP JUMPDEST PUSH2 0x21D PUSH2 0x9CF JUMP JUMPDEST PUSH1 0x6 SLOAD PUSH1 0xFF AND ISZERO PUSH2 0x265 JUMPI PUSH1 0x40 MLOAD PUSH3 0x461BCD PUSH1 0xE5 SHL DUP2 MSTORE PUSH1 0x20 PUSH1 0x4 DUP3 ADD MSTORE PUSH1 0xD PUSH1 0x24 DUP3 ADD MSTORE PUSH13 0x10985B1B1BDD0E88195B991959 PUSH1 0x9A SHL PUSH1 0x44 DUP3 ADD MSTORE PUSH1 0x64 ADD JUMPDEST PUSH1 0x40 MLOAD DUP1 SWAP2 SUB SWAP1 REVERT JUMPDEST PUSH1 0x4 SLOAD TIMESTAMP LT ISZERO DUP1 ISZERO PUSH2 0x279 JUMPI POP PUSH1 0x5 SLOAD TIMESTAMP GT ISZERO JUMPDEST PUSH2 0x2BA JUMPI PUSH1 0x40 MLOAD PUSH3 0x461BCD PUSH1 0xE5 SHL DUP2 MSTORE PUSH1 0x20 PUSH1 0x4 DUP3 ADD MSTORE PUSH1 0x12 PUSH1 0x24 DUP3 ADD MSTORE PUSH18 0x42616C6C6F743A206E6F7420616374697665 PUSH1 0x70 SHL PUSH1 0x44 DUP3 ADD MSTORE PUSH1 0x64 ADD PUSH2 0x25C JUMP JUMPDEST PUSH1 0x0 DUP2 GT DUP1 ISZERO PUSH2 0x2CC JUMPI POP PUSH1 0x7 SLOAD DUP2 GT ISZERO JUMPDEST PUSH2 0x318 JUMPI PUSH1 0x40 MLOAD PUSH3 0x461BCD PUSH1 0xE5 SHL DUP2 MSTORE PUSH1 0x20 PUSH1 0x4 DUP3 ADD MSTORE PUSH1 0x19 PUSH1 0x24 DUP3 ADD MSTORE PUSH32 0x42616C6C6F743A20696E76616C69642063616E64696461746500000000000000 PUSH1 0x44 DUP3 ADD MSTORE PUSH1 0x64 ADD PUSH2 0x25C JUMP JUMPDEST CALLER PUSH1 0x0 SWAP1 DUP2 MSTORE PUSH1 0xA PUSH1 0x20 MSTORE PUSH1 0x40 SWAP1 KECCAK256 SLOAD PUSH1 0xFF AND ISZERO PUSH2 0x370 JUMPI PUSH1 0x40 MLOAD PUSH3 0x461BCD PUSH1 0xE5 SHL DUP2 MSTORE PUSH1 0x20 PUSH1 0x4 DUP3 ADD MSTORE PUSH1 0x15 PUSH1 0x24 DUP3 ADD MSTORE PUSH21 0x10985B1B1BDD0E88185B1C9958591E481D9BDD1959 PUSH1 0x5A SHL PUSH1 0x44 DUP3 ADD MSTORE PUSH1 0x64 ADD PUSH2 0x25C JUMP JUMPDEST PUSH1 0x1 SLOAD PUSH1 0x40 MLOAD PUSH4 0xC3C5A547 PUSH1 0xE0 SHL DUP2 MSTORE CALLER PUSH1 0x4 DUP3 ADD MSTORE PUSH1 0x1 PUSH1 0x1 PUSH1 0xA0 SHL SUB SWAP1 SWAP2 AND SWAP1 PUSH4 0xC3C5A547 SWAP1 PUSH1 0x24 ADD PUSH1 0x20 PUSH1 0x40 MLOAD DUP1 DUP4 SUB DUP2 DUP7 GAS STATICCALL ISZERO DUP1 ISZERO PUSH2 0x3B8 JUMPI RETURNDATASIZE PUSH1 0x0 DUP1 RETURNDATACOPY RETURNDATASIZE PUSH1 0x0 REVERT JUMPDEST POP POP POP POP PUSH1 0x40 MLOAD RETURNDATASIZE PUSH1 0x1F NOT PUSH1 0x1F DUP3 ADD AND DUP3 ADD DUP1 PUSH1 0x40 MSTORE POP DUP2 ADD SWAP1 PUSH2 0x3DC SWAP2 SWAP1 PUSH2 0xC74 JUMP JUMPDEST PUSH2 0x428 JUMPI PUSH1 0x40 MLOAD PUSH3 0x461BCD PUSH1 0xE5 SHL DUP2 MSTORE PUSH1 0x20 PUSH1 0x4 DUP3 ADD MSTORE PUSH1 0x1C PUSH1 0x24 DUP3 ADD MSTORE PUSH32 0x42616C6C6F743A206E6F74207265676973746572656420766F74657200000000 PUSH1 0x44 DUP3 ADD MSTORE PUSH1 0x64 ADD PUSH2 0x25C JUMP JUMPDEST CALLER PUSH1 0x0 SWAP1 DUP2 MSTORE PUSH1 0xA PUSH1 0x20 SWAP1 DUP2 MSTORE PUSH1 0x40 DUP1 DUP4 KECCAK256 DUP1 SLOAD PUSH1 0xFF NOT AND PUSH1 0x1 SWAP1 DUP2 OR SWAP1 SWAP2 SSTORE DUP5 DUP5 MSTORE PUSH1 0x9 SWAP1 SWAP3 MSTORE DUP3 KECCAK256 PUSH1 0x2 ADD DUP1 SLOAD SWAP2 SWAP3 SWAP1 SWAP2 PUSH2 0x466 SWAP1 DUP5 SWAP1 PUSH2 0xCAC JUMP JUMPDEST SWAP3 POP POP DUP2 SWAP1 SSTORE POP PUSH1 0x1 PUSH1 0x8 PUSH1 0x0 DUP3 DUP3 SLOAD PUSH2 0x480 SWAP2 SWAP1 PUSH2 0xCAC JUMP JUMPDEST SWAP1 SWAP2 SSTORE POP POP PUSH1 0x40 MLOAD DUP2 SWAP1 CALLER SWAP1 PUSH32 0xA36CC2BEBB74DB33E9F88110A07EF56E1B31B24B4C4F51B54B1664266E29F45B SWAP1 PUSH1 0x0 SWAP1 LOG3 PUSH2 0x4BC PUSH1 0x1 PUSH1 0x0 SSTORE JUMP JUMPDEST POP JUMP JUMPDEST PUSH1 0x60 DUP1 PUSH1 0x60 PUSH1 0x0 PUSH1 0x7 SLOAD SWAP1 POP DUP1 PUSH8 0xFFFFFFFFFFFFFFFF DUP2 GT ISZERO PUSH2 0x4E4 JUMPI PUSH2 0x4E4 PUSH2 0xB48 JUMP JUMPDEST PUSH1 0x40 MLOAD SWAP1 DUP1 DUP3 MSTORE DUP1 PUSH1 0x20 MUL PUSH1 0x20 ADD DUP3 ADD PUSH1 0x40 MSTORE DUP1 ISZERO PUSH2 0x50D JUMPI DUP2 PUSH1 0x20 ADD PUSH1 0x20 DUP3 MUL DUP1 CALLDATASIZE DUP4 CALLDATACOPY ADD SWAP1 POP JUMPDEST POP SWAP4 POP DUP1 PUSH8 0xFFFFFFFFFFFFFFFF DUP2 GT ISZERO PUSH2 0x529 JUMPI PUSH2 0x529 PUSH2 0xB48 JUMP JUMPDEST PUSH1 0x40 MLOAD SWAP1 DUP1 DUP3 MSTORE DUP1 PUSH1 0x20 MUL PUSH1 0x20 ADD DUP3 ADD PUSH1 0x40 MSTORE DUP1 ISZERO PUSH2 0x55C JUMPI DUP2 PUSH1 0x20 ADD JUMPDEST PUSH1 0x60 DUP2 MSTORE PUSH1 0x20 ADD SWAP1 PUSH1 0x1 SWAP1 SUB SWAP1 DUP2 PUSH2 0x547 JUMPI SWAP1 POP JUMPDEST POP SWAP3 POP DUP1 PUSH8 0xFFFFFFFFFFFFFFFF DUP2 GT ISZERO PUSH2 0x578 JUMPI PUSH2 0x578 PUSH2 0xB48 JUMP JUMPDEST PUSH1 0x40 MLOAD SWAP1 DUP1 DUP3 MSTORE DUP1 PUSH1 0x20 MUL PUSH1 0x20 ADD DUP3 ADD PUSH1 0x40 MSTORE DUP1 ISZERO PUSH2 0x5A1 JUMPI DUP2 PUSH1 0x20 ADD PUSH1 0x20 DUP3 MUL DUP1 CALLDATASIZE DUP4 CALLDATACOPY ADD SWAP1 POP JUMPDEST POP SWAP2 POP PUSH1 0x0 JUMPDEST DUP2 DUP2 LT ISZERO PUSH2 0x6C7 JUMPI PUSH1 0x0 PUSH2 0x5BC DUP3 PUSH1 0x1 PUSH2 0xCAC JUMP JUMPDEST PUSH1 0x0 DUP2 DUP2 MSTORE PUSH1 0x9 PUSH1 0x20 MSTORE PUSH1 0x40 SWAP1 KECCAK256 DUP1 SLOAD DUP9 MLOAD SWAP3 SWAP4 POP SWAP1 SWAP2 DUP9 SWAP1 DUP6 SWAP1 DUP2 LT PUSH2 0x5E5 JUMPI PUSH2 0x5E5 PUSH2 0xCC5 JUMP JUMPDEST PUSH1 0x20 MUL PUSH1 0x20 ADD ADD DUP2 DUP2 MSTORE POP POP DUP1 PUSH1 0x1 ADD DUP1 SLOAD PUSH2 0x600 SWAP1 PUSH2 0xCDB JUMP JUMPDEST DUP1 PUSH1 0x1F ADD PUSH1 0x20 DUP1 SWAP2 DIV MUL PUSH1 0x20 ADD PUSH1 0x40 MLOAD SWAP1 DUP2 ADD PUSH1 0x40 MSTORE DUP1 SWAP3 SWAP2 SWAP1 DUP2 DUP2 MSTORE PUSH1 0x20 ADD DUP3 DUP1 SLOAD PUSH2 0x62C SWAP1 PUSH2 0xCDB JUMP JUMPDEST DUP1 ISZERO PUSH2 0x679 JUMPI DUP1 PUSH1 0x1F LT PUSH2 0x64E JUMPI PUSH2 0x100 DUP1 DUP4 SLOAD DIV MUL DUP4 MSTORE SWAP2 PUSH1 0x20 ADD SWAP2 PUSH2 0x679 JUMP JUMPDEST DUP3 ADD SWAP2 SWAP1 PUSH1 0x0 MSTORE PUSH1 0x20 PUSH1 0x0 KECCAK256 SWAP1 JUMPDEST DUP2 SLOAD DUP2 MSTORE SWAP1 PUSH1 0x1 ADD SWAP1 PUSH1 0x20 ADD DUP1 DUP4 GT PUSH2 0x65C JUMPI DUP3 SWAP1 SUB PUSH1 0x1F AND DUP3 ADD SWAP2 JUMPDEST POP POP POP POP POP DUP7 DUP5 DUP2 MLOAD DUP2 LT PUSH2 0x690 JUMPI PUSH2 0x690 PUSH2 0xCC5 JUMP JUMPDEST PUSH1 0x20 MUL PUSH1 0x20 ADD ADD DUP2 SWAP1 MSTORE POP DUP1 PUSH1 0x2 ADD SLOAD DUP6 DUP5 DUP2 MLOAD DUP2 LT PUSH2 0x6B2 JUMPI PUSH2 0x6B2 PUSH2 0xCC5 JUMP JUMPDEST PUSH1 0x20 SWAP1 DUP2 MUL SWAP2 SWAP1 SWAP2 ADD ADD MSTORE POP POP PUSH1 0x1 ADD PUSH2 0x5A7 JUMP JUMPDEST POP POP SWAP1 SWAP2 SWAP3 JUMP JUMPDEST PUSH1 0x6 DUP1 SLOAD PUSH1 0xFF NOT AND PUSH1 0x1 OR SWAP1 SSTORE PUSH1 0x40 MLOAD PUSH32 0x62DA22C1648062738ADDB8883C7A3F94AE072A1282F0D8E9E4DEB361D3C67CD5 SWAP1 PUSH1 0x0 SWAP1 LOG1 JUMP JUMPDEST PUSH1 0x7 DUP1 SLOAD SWAP1 PUSH1 0x0 PUSH2 0x716 DUP4 PUSH2 0xD15 JUMP JUMPDEST SWAP1 SWAP2 SSTORE POP POP PUSH1 0x40 DUP1 MLOAD PUSH1 0x60 DUP2 ADD DUP3 MSTORE PUSH1 0x7 SLOAD DUP1 DUP3 MSTORE PUSH1 0x20 DUP1 DUP4 ADD DUP6 DUP2 MSTORE PUSH1 0x0 DUP5 DUP7 ADD DUP2 SWAP1 MSTORE SWAP3 DUP4 MSTORE PUSH1 0x9 SWAP1 SWAP2 MSTORE SWAP3 SWAP1 KECCAK256 DUP2 MLOAD DUP2 SSTORE SWAP2 MLOAD SWAP1 SWAP2 SWAP1 PUSH1 0x1 DUP3 ADD SWAP1 PUSH2 0x75E SWAP1 DUP3 PUSH2 0xD7F JUMP JUMPDEST POP PUSH1 0x40 DUP3 ADD MLOAD DUP2 PUSH1 0x2 ADD SSTORE SWAP1 POP POP PUSH1 0x7 SLOAD PUSH32 0xE83B2A43E7E82D975C8A0A6D2F045153C869E111136A34D1889AB7B598E396A3 DUP3 PUSH1 0x40 MLOAD PUSH2 0x79E SWAP2 SWAP1 PUSH2 0xC0F JUMP JUMPDEST PUSH1 0x40 MLOAD DUP1 SWAP2 SUB SWAP1 LOG2 POP JUMP JUMPDEST PUSH1 0x3 DUP1 SLOAD PUSH2 0x7B6 SWAP1 PUSH2 0xCDB JUMP JUMPDEST DUP1 PUSH1 0x1F ADD PUSH1 0x20 DUP1 SWAP2 DIV MUL PUSH1 0x20 ADD PUSH1 0x40 MLOAD SWAP1 DUP2 ADD PUSH1 0x40 MSTORE DUP1 SWAP3 SWAP2 SWAP1 DUP2 DUP2 MSTORE PUSH1 0x20 ADD DUP3 DUP1 SLOAD PUSH2 0x7E2 SWAP1 PUSH2 0xCDB JUMP JUMPDEST DUP1 ISZERO PUSH2 0x82F JUMPI DUP1 PUSH1 0x1F LT PUSH2 0x804 JUMPI PUSH2 0x100 DUP1 DUP4 SLOAD DIV MUL DUP4 MSTORE SWAP2 PUSH1 0x20 ADD SWAP2 PUSH2 0x82F JUMP JUMPDEST DUP3 ADD SWAP2 SWAP1 PUSH1 0x0 MSTORE PUSH1 0x20 PUSH1 0x0 KECCAK256 SWAP1 JUMPDEST DUP2 SLOAD DUP2 MSTORE SWAP1 PUSH1 0x1 ADD SWAP1 PUSH1 0x20 ADD DUP1 DUP4 GT PUSH2 0x812 JUMPI DUP3 SWAP1 SUB PUSH1 0x1F AND DUP3 ADD SWAP2 JUMPDEST POP POP POP POP POP DUP2 JUMP JUMPDEST PUSH1 0x60 PUSH1 0x0 DUP1 PUSH1 0x7 SLOAD GT PUSH2 0x884 JUMPI PUSH1 0x40 MLOAD PUSH3 0x461BCD PUSH1 0xE5 SHL DUP2 MSTORE PUSH1 0x20 PUSH1 0x4 DUP3 ADD MSTORE PUSH1 0x15 PUSH1 0x24 DUP3 ADD MSTORE PUSH21 0x42616C6C6F743A206E6F2063616E64696461746573 PUSH1 0x58 SHL PUSH1 0x44 DUP3 ADD MSTORE PUSH1 0x64 ADD PUSH2 0x25C JUMP JUMPDEST PUSH1 0x0 PUSH1 0x1 JUMPDEST PUSH1 0x7 SLOAD DUP2 GT PUSH2 0x8C3 JUMPI PUSH1 0x0 DUP2 DUP2 MSTORE PUSH1 0x9 PUSH1 0x20 MSTORE PUSH1 0x40 SWAP1 KECCAK256 PUSH1 0x2 ADD SLOAD DUP3 DUP2 GT ISZERO PUSH2 0x8B0 JUMPI DUP1 SWAP3 POP JUMPDEST POP DUP1 PUSH2 0x8BB DUP2 PUSH2 0xD15 JUMP JUMPDEST SWAP2 POP POP PUSH2 0x889 JUMP JUMPDEST POP PUSH1 0x0 PUSH1 0x1 JUMPDEST PUSH1 0x7 SLOAD DUP2 GT PUSH2 0x90B JUMPI PUSH1 0x0 DUP2 DUP2 MSTORE PUSH1 0x9 PUSH1 0x20 MSTORE PUSH1 0x40 SWAP1 KECCAK256 PUSH1 0x2 ADD SLOAD DUP4 SWAP1 SUB PUSH2 0x8F9 JUMPI DUP2 PUSH2 0x8F5 DUP2 PUSH2 0xD15 JUMP JUMPDEST SWAP3 POP POP JUMPDEST DUP1 PUSH2 0x903 DUP2 PUSH2 0xD15 JUMP JUMPDEST SWAP2 POP POP PUSH2 0x8C9 JUMP JUMPDEST POP DUP1 PUSH8 0xFFFFFFFFFFFFFFFF DUP2 GT ISZERO PUSH2 0x925 JUMPI PUSH2 0x925 PUSH2 0xB48 JUMP JUMPDEST PUSH1 0x40 MLOAD SWAP1 DUP1 DUP3 MSTORE DUP1 PUSH1 0x20 MUL PUSH1 0x20 ADD DUP3 ADD PUSH1 0x40 MSTORE DUP1 ISZERO PUSH2 0x94E JUMPI DUP2 PUSH1 0x20 ADD PUSH1 0x20 DUP3 MUL DUP1 CALLDATASIZE DUP4 CALLDATACOPY ADD SWAP1 POP JUMPDEST POP SWAP4 POP PUSH1 0x0 PUSH1 0x1 JUMPDEST PUSH1 0x7 SLOAD DUP2 GT PUSH2 0x9C3 JUMPI PUSH1 0x0 DUP2 DUP2 MSTORE PUSH1 0x9 PUSH1 0x20 MSTORE PUSH1 0x40 SWAP1 KECCAK256 PUSH1 0x2 ADD SLOAD DUP5 SWAP1 SUB PUSH2 0x9B1 JUMPI PUSH1 0x0 DUP2 DUP2 MSTORE PUSH1 0x9 PUSH1 0x20 MSTORE PUSH1 0x40 SWAP1 KECCAK256 SLOAD DUP7 DUP4 PUSH2 0x992 DUP2 PUSH2 0xD15 JUMP JUMPDEST SWAP5 POP DUP2 MLOAD DUP2 LT PUSH2 0x9A4 JUMPI PUSH2 0x9A4 PUSH2 0xCC5 JUMP JUMPDEST PUSH1 0x20 MUL PUSH1 0x20 ADD ADD DUP2 DUP2 MSTORE POP POP JUMPDEST DUP1 PUSH2 0x9BB DUP2 PUSH2 0xD15 JUMP JUMPDEST SWAP2 POP POP PUSH2 0x956 JUMP JUMPDEST POP SWAP4 SWAP5 SWAP2 SWAP4 POP SWAP1 SWAP2 POP POP JUMP JUMPDEST PUSH1 0x2 PUSH1 0x0 SLOAD SUB PUSH2 0xA21 JUMPI PUSH1 0x40 MLOAD PUSH3 0x461BCD PUSH1 0xE5 SHL DUP2 MSTORE PUSH1 0x20 PUSH1 0x4 DUP3 ADD MSTORE PUSH1 0x1F PUSH1 0x24 DUP3 ADD MSTORE PUSH32 0x5265656E7472616E637947756172643A207265656E7472616E742063616C6C00 PUSH1 0x44 DUP3 ADD MSTORE PUSH1 0x64 ADD PUSH2 0x25C JUMP JUMPDEST PUSH1 0x2 PUSH1 0x0 SSTORE JUMP JUMPDEST PUSH1 0x0 PUSH1 0x20 DUP3 DUP5 SUB SLT ISZERO PUSH2 0xA3A JUMPI PUSH1 0x0 DUP1 REVERT JUMPDEST POP CALLDATALOAD SWAP2 SWAP1 POP JUMP JUMPDEST PUSH1 0x0 DUP2 MLOAD DUP1 DUP5 MSTORE PUSH1 0x20 DUP1 DUP6 ADD SWAP5 POP PUSH1 0x20 DUP5 ADD PUSH1 0x0 JUMPDEST DUP4 DUP2 LT ISZERO PUSH2 0xA72 JUMPI DUP2 MLOAD DUP8 MSTORE SWAP6 DUP3 ADD SWAP6 SWAP1 DUP3 ADD SWAP1 PUSH1 0x1 ADD PUSH2 0xA56 JUMP JUMPDEST POP SWAP5 SWAP6 SWAP5 POP POP POP POP POP JUMP JUMPDEST PUSH1 0x0 DUP2 MLOAD DUP1 DUP5 MSTORE PUSH1 0x0 JUMPDEST DUP2 DUP2 LT ISZERO PUSH2 0xAA3 JUMPI PUSH1 0x20 DUP2 DUP6 ADD DUP2 ADD MLOAD DUP7 DUP4 ADD DUP3 ADD MSTORE ADD PUSH2 0xA87 JUMP JUMPDEST POP PUSH1 0x0 PUSH1 0x20 DUP3 DUP7 ADD ADD MSTORE PUSH1 0x20 PUSH1 0x1F NOT PUSH1 0x1F DUP4 ADD AND DUP6 ADD ADD SWAP2 POP POP SWAP3 SWAP2 POP POP JUMP JUMPDEST PUSH1 0x60 DUP2 MSTORE PUSH1 0x0 PUSH2 0xAD6 PUSH1 0x60 DUP4 ADD DUP7 PUSH2 0xA41 JUMP JUMPDEST PUSH1 0x20 DUP4 DUP3 SUB DUP2 DUP6 ADD MSTORE DUP2 DUP7 MLOAD DUP1 DUP5 MSTORE DUP3 DUP5 ADD SWAP2 POP DUP3 DUP2 PUSH1 0x5 SHL DUP6 ADD ADD DUP4 DUP10 ADD PUSH1 0x0 JUMPDEST DUP4 DUP2 LT ISZERO PUSH2 0xB26 JUMPI PUSH1 0x1F NOT DUP8 DUP5 SUB ADD DUP6 MSTORE PUSH2 0xB14 DUP4 DUP4 MLOAD PUSH2 0xA7D JUMP JUMPDEST SWAP5 DUP7 ADD SWAP5 SWAP3 POP SWAP1 DUP6 ADD SWAP1 PUSH1 0x1 ADD PUSH2 0xAF8 JUMP JUMPDEST POP POP DUP7 DUP2 SUB PUSH1 0x40 DUP9 ADD MSTORE PUSH2 0xB3A DUP2 DUP10 PUSH2 0xA41 JUMP JUMPDEST SWAP11 SWAP10 POP POP POP POP POP POP POP POP POP POP JUMP JUMPDEST PUSH4 0x4E487B71 PUSH1 0xE0 SHL PUSH1 0x0 MSTORE PUSH1 0x41 PUSH1 0x4 MSTORE PUSH1 0x24 PUSH1 0x0 REVERT JUMPDEST PUSH1 0x0 PUSH1 0x20 DUP3 DUP5 SUB SLT ISZERO PUSH2 0xB70 JUMPI PUSH1 0x0 DUP1 REVERT JUMPDEST DUP2 CALLDATALOAD PUSH8 0xFFFFFFFFFFFFFFFF DUP1 DUP3 GT ISZERO PUSH2 0xB88 JUMPI PUSH1 0x0 DUP1 REVERT JUMPDEST DUP2 DUP5 ADD SWAP2 POP DUP5 PUSH1 0x1F DUP4 ADD SLT PUSH2 0xB9C JUMPI PUSH1 0x0 DUP1 REVERT JUMPDEST DUP2 CALLDATALOAD DUP2 DUP2 GT ISZERO PUSH2 0xBAE JUMPI PUSH2 0xBAE PUSH2 0xB48 JUMP JUMPDEST PUSH1 0x40 MLOAD PUSH1 0x1F DUP3 ADD PUSH1 0x1F NOT SWAP1 DUP2 AND PUSH1 0x3F ADD AND DUP2 ADD SWAP1 DUP4 DUP3 GT DUP2 DUP4 LT OR ISZERO PUSH2 0xBD6 JUMPI PUSH2 0xBD6 PUSH2 0xB48 JUMP JUMPDEST DUP2 PUSH1 0x40 MSTORE DUP3 DUP2 MSTORE DUP8 PUSH1 0x20 DUP5 DUP8 ADD ADD GT ISZERO PUSH2 0xBEF JUMPI PUSH1 0x0 DUP1 REVERT JUMPDEST DUP3 PUSH1 0x20 DUP7 ADD PUSH1 0x20 DUP4 ADD CALLDATACOPY PUSH1 0x0 SWAP3 DUP2 ADD PUSH1 0x20 ADD SWAP3 SWAP1 SWAP3 MSTORE POP SWAP6 SWAP5 POP POP POP POP POP JUMP JUMPDEST PUSH1 0x20 DUP2 MSTORE PUSH1 0x0 PUSH2 0xC22 PUSH1 0x20 DUP4 ADD DUP5 PUSH2 0xA7D JUMP JUMPDEST SWAP4 SWAP3 POP POP POP JUMP JUMPDEST PUSH1 0x40 DUP2 MSTORE PUSH1 0x0 PUSH2 0xC3C PUSH1 0x40 DUP4 ADD DUP6 PUSH2 0xA41 JUMP JUMPDEST SWAP1 POP DUP3 PUSH1 0x20 DUP4 ADD MSTORE SWAP4 SWAP3 POP POP POP JUMP JUMPDEST PUSH1 0x0 PUSH1 0x20 DUP3 DUP5 SUB SLT ISZERO PUSH2 0xC5D JUMPI PUSH1 0x0 DUP1 REVERT JUMPDEST DUP2 CALLDATALOAD PUSH1 0x1 PUSH1 0x1 PUSH1 0xA0 SHL SUB DUP2 AND DUP2 EQ PUSH2 0xC22 JUMPI PUSH1 0x0 DUP1 REVERT JUMPDEST PUSH1 0x0 PUSH1 0x20 DUP3 DUP5 SUB SLT ISZERO PUSH2 0xC86 JUMPI PUSH1 0x0 DUP1 REVERT JUMPDEST DUP2 MLOAD DUP1 ISZERO ISZERO DUP2 EQ PUSH2 0xC22 JUMPI PUSH1 0x0 DUP1 REVERT JUMPDEST PUSH4 0x4E487B71 PUSH1 0xE0 SHL PUSH1 0x0 MSTORE PUSH1 0x11 PUSH1 0x4 MSTORE PUSH1 0x24 PUSH1 0x0 REVERT JUMPDEST DUP1 DUP3 ADD DUP1 DUP3 GT ISZERO PUSH2 0xCBF JUMPI PUSH2 0xCBF PUSH2 0xC96 JUMP JUMPDEST SWAP3 SWAP2 POP POP JUMP JUMPDEST PUSH4 0x4E487B71 PUSH1 0xE0 SHL PUSH1 0x0 MSTORE PUSH1 0x32 PUSH1 0x4 MSTORE PUSH1 0x24 PUSH1 0x0 REVERT JUMPDEST PUSH1 0x1 DUP2 DUP2 SHR SWAP1 DUP3 AND DUP1 PUSH2 0xCEF JUMPI PUSH1 0x7F DUP3 AND SWAP2 POP JUMPDEST PUSH1 0x20 DUP3 LT DUP2 SUB PUSH2 0xD0F JUMPI PUSH4 0x4E487B71 PUSH1 0xE0 SHL PUSH1 0x0 MSTORE PUSH1 0x22 PUSH1 0x4 MSTORE PUSH1 0x24 PUSH1 0x0 REVERT JUMPDEST POP SWAP2 SWAP1 POP JUMP JUMPDEST PUSH1 0x0 PUSH1 0x1 DUP3 ADD PUSH2 0xD27 JUMPI PUSH2 0xD27 PUSH2 0xC96 JUMP JUMPDEST POP PUSH1 0x1 ADD SWAP1 JUMP JUMPDEST PUSH1 0x1F DUP3 GT ISZERO PUSH2 0xD7A JUMPI PUSH1 0x0 DUP2 PUSH1 0x0 MSTORE PUSH1 0x20 PUSH1 0x0 KECCAK256 PUSH1 0x1F DUP6 ADD PUSH1 0x5 SHR DUP2 ADD PUSH1 0x20 DUP7 LT ISZERO PUSH2 0xD57 JUMPI POP DUP1 JUMPDEST PUSH1 0x1F DUP6 ADD PUSH1 0x5 SHR DUP3 ADD SWAP2 POP JUMPDEST DUP2 DUP2 LT ISZERO PUSH2 0xD76 JUMPI DUP3 DUP2 SSTORE PUSH1 0x1 ADD PUSH2 0xD63 JUMP JUMPDEST POP POP POP JUMPDEST POP POP POP JUMP JUMPDEST DUP2 MLOAD PUSH8 0xFFFFFFFFFFFFFFFF DUP2 GT ISZERO PUSH2 0xD99 JUMPI PUSH2 0xD99 PUSH2 0xB48 JUMP JUMPDEST PUSH2 0xDAD DUP2 PUSH2 0xDA7 DUP5 SLOAD PUSH2 0xCDB JUMP JUMPDEST DUP5 PUSH2 0xD2E JUMP JUMPDEST PUSH1 0x20 DUP1 PUSH1 0x1F DUP4 GT PUSH1 0x1 DUP2 EQ PUSH2 0xDE2 JUMPI PUSH1 0x0 DUP5 ISZERO PUSH2 0xDCA JUMPI POP DUP6 DUP4 ADD MLOAD JUMPDEST PUSH1 0x0 NOT PUSH1 0x3 DUP7 SWAP1 SHL SHR NOT AND PUSH1 0x1 DUP6 SWAP1 SHL OR DUP6 SSTORE PUSH2 0xD76 JUMP JUMPDEST PUSH1 0x0 DUP6 DUP2 MSTORE PUSH1 0x20 DUP2 KECCAK256 PUSH1 0x1F NOT DUP7 AND SWAP2 JUMPDEST DUP3 DUP2 LT ISZERO PUSH2 0xE11 JUMPI DUP9 DUP7 ADD MLOAD DUP3 SSTORE SWAP5 DUP5 ADD SWAP5 PUSH1 0x1 SWAP1 SWAP2 ADD SWAP1 DUP5 ADD PUSH2 0xDF2 JUMP JUMPDEST POP DUP6 DUP3 LT ISZERO PUSH2 0xE2F JUMPI DUP8 DUP6 ADD MLOAD PUSH1 0x0 NOT PUSH1 0x3 DUP9 SWAP1 SHL PUSH1 0xF8 AND SHR NOT AND DUP2 SSTORE JUMPDEST POP POP POP POP POP PUSH1 0x1 SWAP1 DUP2 SHL ADD SWAP1 SSTORE POP JUMP INVALID LOG2 PUSH5 0x6970667358 0x22 SLT KECCAK256 DUP16 0xA7 PUSH8 0xDF5C7D8C3ABA9D08 0xD7 SGT 0xFC 0xBD JUMPI OR 0xEA 0x2A TLOAD CREATE2 0xB6 SHL MOD 0x25 DUP3 DUP11 SUB 0xD6 0xC1 0xF6 0xFC PUSH5 0x736F6C6343 STOP ADDMOD XOR STOP CALLER LOG2 PUSH5 0x6970667358 0x22 SLT KECCAK256 TLOAD 0xAB PC 0xE6 CALL CALLDATACOPY NUMBER 0xE8 EXTCODEHASH SWAP16 0xA6 SWAP2 RETURN PUSH25 0xE95112C47BF128B3D46AEB1A29A1F3A205F364736F6C634300 ADDMOD XOR STOP CALLER "},"methodIdentifiers":{"ADMIN_ROLE()":"75b238fc","DEFAULT_ADMIN_ROLE()":"a217fddf","addCandidate(uint256,string)":"1750a3d0","createElection(string,uint256,uint256)":"f49a7a17","electionCount()":"997d2830","elections(uint256)":"5e6fef01","endElection(uint256)":"9c98bcbb","getBallotAddress(uint256)":"7efa9ae3","getElectionInfo(uint256)":"ce99b5df","getRoleAdmin(bytes32)":"248a9ca3","grantRole(bytes32,address)":"2f2ff15d","hasRole(bytes32,address)":"91d14854","registry()":"7b103999","renounceRole(bytes32,address)":"36568abe","revokeRole(bytes32,address)":"d547741f","supportsInterface(bytes4)":"01ffc9a7"}}}}}