{
  "_format": "hh-sol-artifact-1",
  "contractName": "Election",
  "sourceName": "contracts/Election.sol",
  "abi": [
    {
      "inputs": [
        {
          "internalType": "address",
          "name": "registryAddress",
          "type": "address"
        },
        {
          "internalType": "address",
          "name": "admin",
          "type": "address"
        }
      ],
      "stateMutability": "nonpayable",
      "type": "constructor"
    },
    {
      "anonymous": false,
      "inputs": [
        {
          "indexed": true,
          "internalType": "uint256",
          "name": "electionId",
          "type": "uint256"
        },
        {
          "indexed": true,
          "internalType": "uint256",
          "name": "candidateId",
          "type": "uint256"
        },
        {
          "indexed": false,
          "internalType": "string",
          "name": "name",
          "type": "string"
        }
      ],
      "name": "CandidateAdded",
      "type": "event"
    },
    {
      "anonymous": false,
      "inputs": [
        {
          "indexed": true,
          "internalType": "uint256",
          "name": "electionId",
          "type": "uint256"
        },
        {
          "indexed": false,
          "internalType": "address",
          "name": "ballotAddress",
          "type": "address"
        },
        {
          "indexed": false,
          "internalType": "string",
          "name": "name",
          "type": "string"
        },
        {
          "indexed": false,
          "internalType": "uint256",
          "name": "startTime",
          "type": "uint256"
        },
        {
          "indexed": false,
          "internalType": "uint256",
          "name": "endTime",
          "type": "uint256"
        }
      ],
      "name": "ElectionCreated",
      "type": "event"
    },
    {
      "anonymous": false,
      "inputs": [
        {
          "indexed": true,
          "internalType": "uint256",
          "name": "electionId",
          "type": "uint256"
        }
      ],
      "name": "ElectionEnded",
      "type": "event"
    },
    {
      "anonymous": false,
      "inputs": [
        {
          "indexed": true,
          "internalType": "bytes32",
          "name": "role",
          "type": "bytes32"
        },
        {
          "indexed": true,
          "internalType": "bytes32",
          "name": "previousAdminRole",
          "type": "bytes32"
        },
        {
          "indexed": true,
          "internalType": "bytes32",
          "name": "newAdminRole",
          "type": "bytes32"
        }
      ],
      "name": "RoleAdminChanged",
      "type": "event"
    },
    {
      "anonymous": false,
      "inputs": [
        {
          "indexed": true,
          "internalType": "bytes32",
          "name": "role",
          "type": "bytes32"
        },
        {
          "indexed": true,
          "internalType": "address",
          "name": "account",
          "type": "address"
        },
        {
          "indexed": true,
          "internalType": "address",
          "name": "sender",
          "type": "address"
        }
      ],
      "name": "RoleGranted",
      "type": "event"
    },
    {
      "anonymous": false,
      "inputs": [
        {
          "indexed": true,
          "internalType": "bytes32",
          "name": "role",
          "type": "bytes32"
        },
        {
          "indexed": true,
          "internalType": "address",
          "name": "account",
          "type": "address"
        },
        {
          "indexed": true,
          "internalType": "address",
          "name": "sender",
          "type": "address"
        }
      ],
      "name": "RoleRevoked",
      "type": "event"
    },
    {
      "inputs": [],
      "name": "ADMIN_ROLE",
      "outputs": [
        {
          "internalType": "bytes32",
          "name": "",
          "type": "bytes32"
        }
      ],
      "stateMutability": "view",
      "type": "function"
    },
    {
      "inputs": [],
      "name": "DEFAULT_ADMIN_ROLE",
      "outputs": [
        {
          "internalType": "bytes32",
          "name": "",
          "type": "bytes32"
        }
      ],
      "stateMutability": "view",
      "type": "function"
    },
    {
      "inputs": [
        {
          "internalType": "uint256",
          "name": "electionId",
          "type": "uint256"
        },
        {
          "internalType": "string",
          "name": "candidateName",
          "type": "string"
        }
      ],
      "name": "addCandidate",
      "outputs": [],
      "stateMutability": "nonpayable",
      "type": "function"
    },
    {
      "inputs": [
        {
          "internalType": "string",
          "name": "name",
          "type": "string"
        },
        {
          "internalType": "uint256",
          "name": "startTime",
          "type": "uint256"
        },
        {
          "internalType": "uint256",
          "name": "endTime",
          "type": "uint256"
        }
      ],
      "name": "createElection",
      "outputs": [
        {
          "internalType": "uint256",
          "name": "",
          "type": "uint256"
        }
      ],
      "stateMutability": "nonpayable",
      "type": "function"
    },
    {
      "inputs": [],
      "name": "electionCount",
      "outputs": [
        {
          "internalType": "uint256",
          "name": "",
          "type": "uint256"
        }
      ],
      "stateMutability": "view",
      "type": "function"
    },
    {
      "inputs": [
        {
          "internalType": "uint256",
          "name": "",
          "type": "uint256"
        }
      ],
      "name": "elections",
      "outputs": [
        {
          "internalType": "uint256",
          "name": "id",
          "type": "uint256"
        },
        {
          "internalType": "string",
          "name": "name",
          "type": "string"
        },
        {
          "internalType": "address",
          "name": "ballotAddress",
          "type": "address"
        },
        {
          "internalType": "uint256",
          "name": "startTime",
          "type": "uint256"
        },
        {
          "internalType": "uint256",
          "name": "endTime",
          "type": "uint256"
        },
        {
          "internalType": "bool",
          "name": "exists",
          "type": "bool"
        }
      ],
      "stateMutability": "view",
      "type": "function"
    },
    {
      "inputs": [
        {
          "internalType": "uint256",
          "name": "electionId",
          "type": "uint256"
        }
      ],
      "name": "endElection",
      "outputs": [],
      "stateMutability": "nonpayable",
      "type": "function"
    },
    {
      "inputs": [
        {
          "internalType": "uint256",
          "name": "electionId",
          "type": "uint256"
        }
      ],
      "name": "getBallotAddress",
      "outputs": [
        {
          "internalType": "address",
          "name": "",
          "type": "address"
        }
      ],
      "stateMutability": "view",
      "type": "function"
    },
    {
      "inputs": [
        {
          "internalType": "uint256",
          "name": "electionId",
          "type": "uint256"
        }
      ],
      "name": "getElectionInfo",
      "outputs": [
        {
          "internalType": "string",
          "name": "name",
          "type": "string"
        },
        {
          "internalType": "uint256",
          "name": "startTime",
          "type": "uint256"
        },
        {
          "internalType": "uint256",
          "name": "endTime",
          "type": "uint256"
        },
        {
          "internalType": "address",
          "name": "ballotAddress",
          "type": "address"
        }
      ],
      "stateMutability": "view",
      "type": "function"
    },
    {
      "inputs": [
        {
          "internalType": "bytes32",
          "name": "role",
          "type": "bytes32"
        }
      ],
      "name": "getRoleAdmin",
      "outputs": [
        {
          "internalType": "bytes32",
          "name": "",
          "type": "bytes32"
        }
      ],
      "stateMutability": "view",
      "type": "function"
    },
    {
      "inputs": [
        {
          "internalType": "bytes32",
          "name": "role",
          "type": "bytes32"
        },
        {
          "internalType": "address",
          "name": "account",
          "type": "address"
        }
      ],
      "name": "grantRole",
      "outputs": [],
      "stateMutability": "nonpayable",
      "type": "function"
    },
    {
      "inputs": [
        {
          "internalType": "bytes32",
          "name": "role",
          "type": "bytes32"
        },
        {
          "internalType": "address",
          "name": "account",
          "type": "address"
        }
      ],
      "name": "hasRole",
      "outputs": [
        {
          "internalType": "bool",
          "name": "",
          "type": "bool"
        }
      ],
      "stateMutability": "view",
      "type": "function"
    },
    {
      "inputs": [],
      "name": "registry",
      "outputs": [
        {
          "internalType": "contract VoterRegistry",
          "name": "",
          "type": "address"
        }
      ],
      "stateMutability": "view",
      "type": "function"
    },
    {
      "inputs": [
        {
          "internalType": "bytes32",
          "name": "role",
          "type": "bytes32"
        },
        {
          "internalType": "address",
          "name": "account",
          "type": "address"
        }
      ],
      "name": "renounceRole",
      "outputs": [],
      "stateMutability": "nonpayable",
      "type": "function"
    },
    {
      "inputs": [
        {
          "internalType": "bytes32",
          "name": "role",
          "type": "bytes32"
        },
        {
          "internalType": "address",
          "name": "account",
          "type": "address"
        }
      ],
      "name": "revokeRole",
      "outputs": [],
      "stateMutability": "nonpayable",
      "type": "function"
    },
    {
      "inputs": [
        {
          "internalType": "bytes4",
          "name": "interfaceId",
          "type": "bytes4"
        }
      ],
      "name": "supportsInterface",
      "outputs": [
        {
          "internalType": "bool",
          "name": "",
          "type": "bool"
        }
      ],
      "stateMutability": "view",
      "type": "function"
    }
  ],
  "bytecode": "0x60806040523480156200001157600080fd5b50604051620027923803806200279283398101604081905262000034916200017d565b6001600160a01b0382166200008f5760405162461bcd60e51b815260206004820152601a60248201527f456c656374696f6e3a20696e76616c6964207265676973747279000000000000604482015260640160405180910390fd5b600380546001600160a01b0319166001600160a01b038416179055620000b7600082620000bf565b5050620001b5565b6000828152602081815260408083206001600160a01b038516845290915290205460ff166200015c576000828152602081815260408083206001600160a01b03851684529091529020805460ff191660011790556200011b3390565b6001600160a01b0316816001600160a01b0316837f2f8788117e7eff1d82e926ec794901d17c78024a50270940304540a733656f0d60405160405180910390a45b5050565b80516001600160a01b03811681146200017857600080fd5b919050565b600080604083850312156200019157600080fd5b6200019c8362000160565b9150620001ac6020840162000160565b90509250929050565b6125cd80620001c56000396000f3fe60806040523480156200001157600080fd5b5060043610620001155760003560e01c80637efa9ae311620000a3578063a217fddf116200006e578063a217fddf14620001ed578063ce99b5df1462000272578063d547741f146200029b578063f49a7a1714620002b257600080fd5b80637efa9ae3146200022357806391d14854146200023a578063997d283014620002515780639c98bcbb146200025b57600080fd5b806336568abe11620000e457806336568abe14620001ab5780635e6fef0114620001c257806375b238fc14620001ed5780637b10399914620001f657600080fd5b806301ffc9a7146200011a5780631750a3d01462000146578063248a9ca3146200015f5780632f2ff15d1462000194575b600080fd5b620001316200012b36600462000d60565b620002c9565b60405190151581526020015b60405180910390f35b6200015d6200015736600462000e37565b62000301565b005b620001856200017036600462000e82565b60009081526020819052604090206001015490565b6040519081526020016200013d565b6200015d620001a536600462000e9c565b62000417565b6200015d620001bc36600462000e9c565b62000445565b620001d9620001d336600462000e82565b620004c7565b6040516200013d9695949392919062000f2e565b62000185600081565b6003546200020a906001600160a01b031681565b6040516001600160a01b0390911681526020016200013d565b6200020a6200023436600462000e82565b6200059a565b620001316200024b36600462000e9c565b620005e2565b6200018560015481565b6200015d6200026c36600462000e82565b6200060b565b620002896200028336600462000e82565b620006ff565b6040516200013d949392919062000f79565b6200015d620002ac36600462000e9c565b62000803565b62000185620002c336600462000fb3565b6200082c565b60006001600160e01b03198216637965db0b60e01b1480620002fb57506301ffc9a760e01b6001600160e01b03198316145b92915050565b6200030e600033620005e2565b620003365760405162461bcd60e51b81526004016200032d9062001005565b60405180910390fd5b6000828152600260205260409020600581015460ff166200036b5760405162461bcd60e51b81526004016200032d906200103c565b600281015460405163118ba47b60e21b81526001600160a01b0390911690819063462e91ec90620003a190869060040162001069565b600060405180830381600087803b158015620003bc57600080fd5b505af1158015620003d1573d6000803e3d6000fd5b505050506000847fed8911b3df733b7d5f75724158e54478ea12e30f49c9d31b5261879f5b76586f8560405162000409919062001069565b60405180910390a350505050565b600082815260208190526040902060010154620004348162000a1b565b62000440838362000a2a565b505050565b6001600160a01b0381163314620004b75760405162461bcd60e51b815260206004820152602f60248201527f416363657373436f6e74726f6c3a2063616e206f6e6c792072656e6f756e636560448201526e103937b632b9903337b91039b2b63360891b60648201526084016200032d565b620004c3828262000ab2565b5050565b60026020526000908152604090208054600182018054919291620004eb906200107e565b80601f016020809104026020016040519081016040528092919081815260200182805462000519906200107e565b80156200056a5780601f106200053e576101008083540402835291602001916200056a565b820191906000526020600020905b8154815290600101906020018083116200054c57829003601f168201915b5050505060028301546003840154600485015460059095015493946001600160a01b039092169390925060ff1686565b6000818152600260205260408120600581015460ff16620005cf5760405162461bcd60e51b81526004016200032d906200103c565b600201546001600160a01b031692915050565b6000918252602082815260408084206001600160a01b0393909316845291905290205460ff1690565b62000618600033620005e2565b620006375760405162461bcd60e51b81526004016200032d9062001005565b6000818152600260205260409020600581015460ff166200066c5760405162461bcd60e51b81526004016200032d906200103c565b6002810154604080516301d23e5b60e51b815290516001600160a01b03909216918291633a47cb6091600480830192600092919082900301818387803b158015620006b657600080fd5b505af1158015620006cb573d6000803e3d6000fd5b50506040518592507f562cd572b2ba3b666cd989fc4ca98419ec81e75f04528df9d9d76fdb7807ee719150600090a2505050565b6000818152600260205260408120600581015460609291829182919060ff166200073d5760405162461bcd60e51b81526004016200032d906200103c565b600381015460048201546002830154600184018054909392916001600160a01b03169084906200076d906200107e565b80601f01602080910402602001604051908101604052809291908181526020018280546200079b906200107e565b8015620007ec5780601f10620007c057610100808354040283529160200191620007ec565b820191906000526020600020905b815481529060010190602001808311620007ce57829003601f168201915b505050505093509450945094509450509193509193565b600082815260208190526040902060010154620008208162000a1b565b62000440838362000ab2565b60006200083a8133620005e2565b620008595760405162461bcd60e51b81526004016200032d9062001005565b818310620008aa5760405162461bcd60e51b815260206004820152601e60248201527f456c656374696f6e3a207374617274203c20656e64207265717569726564000060448201526064016200032d565b60018054906000620008bc83620010d0565b90915550506001546003546040516000916001600160a01b0316908390889088908890620008ea9062000d52565b620008fa959493929190620010ec565b604051809103906000f08015801562000917573d6000803e3d6000fd5b506040805160c08101825284815260208082018a81526001600160a01b03851683850152606083018a905260808301899052600160a084018190526000888152600290935293909120825181559051939450909290918201906200097c90826200117d565b506040828101516002830180546001600160a01b0319166001600160a01b03909216919091179055606083015160038301556080830151600483015560a0909201516005909101805460ff19169115159190911790555182907fb7e3ddf74a01983ed95ee8d25463572052b3548f0e02733018c5703ecdcbd71f9062000a0a9084908a908a908a906200124a565b60405180910390a250949350505050565b62000a27813362000b1a565b50565b62000a368282620005e2565b620004c3576000828152602081815260408083206001600160a01b03851684529091529020805460ff1916600117905562000a6e3390565b6001600160a01b0316816001600160a01b0316837f2f8788117e7eff1d82e926ec794901d17c78024a50270940304540a733656f0d60405160405180910390a45050565b62000abe8282620005e2565b15620004c3576000828152602081815260408083206001600160a01b0385168085529252808320805460ff1916905551339285917ff6391f5c32d9c69d2a47ea670b442974b53935d1edc7fd64eb21e047a839171b9190a45050565b62000b268282620005e2565b620004c35762000b368162000b7e565b62000b4383602062000b91565b60405160200162000b5692919062001283565b60408051601f198184030181529082905262461bcd60e51b82526200032d9160040162001069565b6060620002fb6001600160a01b03831660145b6060600062000ba2836002620012fc565b62000baf90600262001316565b67ffffffffffffffff81111562000bca5762000bca62000d8c565b6040519080825280601f01601f19166020018201604052801562000bf5576020820181803683370190505b509050600360fc1b8160008151811062000c135762000c136200132c565b60200101906001600160f81b031916908160001a905350600f60fb1b8160018151811062000c455762000c456200132c565b60200101906001600160f81b031916908160001a905350600062000c6b846002620012fc565b62000c7890600162001316565b90505b600181111562000cfa576f181899199a1a9b1b9c1cb0b131b232b360811b85600f166010811062000cb05762000cb06200132c565b1a60f81b82828151811062000cc95762000cc96200132c565b60200101906001600160f81b031916908160001a90535060049490941c9362000cf28162001342565b905062000c7b565b50831562000d4b5760405162461bcd60e51b815260206004820181905260248201527f537472696e67733a20686578206c656e67746820696e73756666696369656e7460448201526064016200032d565b9392505050565b61123b806200135d83390190565b60006020828403121562000d7357600080fd5b81356001600160e01b03198116811462000d4b57600080fd5b634e487b7160e01b600052604160045260246000fd5b600082601f83011262000db457600080fd5b813567ffffffffffffffff8082111562000dd25762000dd262000d8c565b604051601f8301601f19908116603f0116810190828211818310171562000dfd5762000dfd62000d8c565b8160405283815286602085880101111562000e1757600080fd5b836020870160208301376000602085830101528094505050505092915050565b6000806040838503121562000e4b57600080fd5b82359150602083013567ffffffffffffffff81111562000e6a57600080fd5b62000e788582860162000da2565b9150509250929050565b60006020828403121562000e9557600080fd5b5035919050565b6000806040838503121562000eb057600080fd5b8235915060208301356001600160a01b038116811462000ecf57600080fd5b809150509250929050565b60005b8381101562000ef757818101518382015260200162000edd565b50506000910152565b6000815180845262000f1a81602086016020860162000eda565b601f01601f19169290920160200192915050565b86815260c06020820152600062000f4960c083018862000f00565b6001600160a01b039690961660408301525060608101939093526080830191909152151560a09091015292915050565b60808152600062000f8e608083018762000f00565b60208301959095525060408101929092526001600160a01b0316606090910152919050565b60008060006060848603121562000fc957600080fd5b833567ffffffffffffffff81111562000fe157600080fd5b62000fef8682870162000da2565b9660208601359650604090950135949350505050565b6020808252601e908201527f456c656374696f6e3a207265737472696374656420746f2061646d696e730000604082015260600190565b602080825260139082015272115b1958dd1a5bdb8e881b9bdd08199bdd5b99606a1b604082015260600190565b60208152600062000d4b602083018462000f00565b600181811c908216806200109357607f821691505b602082108103620010b457634e487b7160e01b600052602260045260246000fd5b50919050565b634e487b7160e01b600052601160045260246000fd5b600060018201620010e557620010e5620010ba565b5060010190565b60018060a01b038616815284602082015260a0604082015260006200111560a083018662000f00565b606083019490945250608001529392505050565b601f82111562000440576000816000526020600020601f850160051c81016020861015620011545750805b601f850160051c820191505b81811015620011755782815560010162001160565b505050505050565b815167ffffffffffffffff8111156200119a576200119a62000d8c565b620011b281620011ab84546200107e565b8462001129565b602080601f831160018114620011ea5760008415620011d15750858301515b600019600386901b1c1916600185901b17855562001175565b600085815260208120601f198616915b828110156200121b57888601518255948401946001909101908401620011fa565b50858210156200123a5787850151600019600388901b60f8161c191681555b5050505050600190811b01905550565b6001600160a01b0385168152608060208201819052600090620012709083018662000f00565b6040830194909452506060015292915050565b7f416363657373436f6e74726f6c3a206163636f756e7420000000000000000000815260008351620012bd81601785016020880162000eda565b7001034b99036b4b9b9b4b733903937b6329607d1b6017918401918201528351620012f081602884016020880162000eda565b01602801949350505050565b8082028115828204841417620002fb57620002fb620010ba565b80820180821115620002fb57620002fb620010ba565b634e487b7160e01b600052603260045260246000fd5b600081620013545762001354620010ba565b50600019019056fe60806040523480156200001157600080fd5b506040516200123b3803806200123b833981016040819052620000349162000147565b60016000556001600160a01b038516620000955760405162461bcd60e51b815260206004820152601860248201527f42616c6c6f743a20696e76616c6964207265676973747279000000000000000060448201526064015b60405180910390fd5b808210620000e65760405162461bcd60e51b815260206004820152601560248201527f42616c6c6f743a20696e76616c69642074696d6573000000000000000000000060448201526064016200008c565b600180546001600160a01b0319166001600160a01b03871617905560028490556003620001148482620002ea565b5060049190915560055550506006805460ff1916905550620003b6565b634e487b7160e01b600052604160045260246000fd5b600080600080600060a086880312156200016057600080fd5b85516001600160a01b03811681146200017857600080fd5b60208781015160408901519297509550906001600160401b03808211156200019f57600080fd5b818901915089601f830112620001b457600080fd5b815181811115620001c957620001c962000131565b604051601f8201601f19908116603f01168101908382118183101715620001f457620001f462000131565b816040528281528c868487010111156200020d57600080fd5b600093505b8284101562000231578484018601518185018701529285019262000212565b6000928101909501919091525050506060870151608090970151959894975095949392505050565b600181811c908216806200026e57607f821691505b6020821081036200028f57634e487b7160e01b600052602260045260246000fd5b50919050565b601f821115620002e5576000816000526020600020601f850160051c81016020861015620002c05750805b601f850160051c820191505b81811015620002e157828155600101620002cc565b5050505b505050565b81516001600160401b0381111562000306576200030662000131565b6200031e8162000317845462000259565b8462000295565b602080601f8311600181146200035657600084156200033d5750858301515b600019600386901b1c1916600185901b178555620002e1565b600085815260208120601f198616915b82811015620003875788860151825594840194600190910190840162000366565b5085821015620003a65787850151600019600388901b60f8161c191681555b5050505050600190811b01905550565b610e7580620003c66000396000f3fe608060405234801561001057600080fd5b50600436106100ea5760003560e01c8063462e91ec1161008c57806385e8e7a71161006657806385e8e7a7146101b5578063a9a981a3146101ca578063df15c37e146101d3578063e3e6ca7d146101e957600080fd5b8063462e91ec1461016e57806378e97925146101815780637b1039991461018a57600080fd5b80630d15fd77116100c85780630d15fd771461013757806312fa6feb146101405780633197cbb61461015d5780633a47cb601461016657600080fd5b80630121b93f146100ef578063051364d41461010457806306a49fce14610120575b600080fd5b6101026100fd366004610a28565b610215565b005b61010d60025481565b6040519081526020015b60405180910390f35b6101286104bf565b60405161011793929190610ac3565b61010d60085481565b60065461014d9060ff1681565b6040519015158152602001610117565b61010d60055481565b6101026106ce565b61010261017c366004610b5e565b610706565b61010d60045481565b60015461019d906001600160a01b031681565b6040516001600160a01b039091168152602001610117565b6101bd6107a9565b6040516101179190610c0f565b61010d60075481565b6101db610837565b604051610117929190610c29565b61014d6101f7366004610c4b565b6001600160a01b03166000908152600a602052604090205460ff1690565b61021d6109cf565b60065460ff16156102655760405162461bcd60e51b815260206004820152600d60248201526c10985b1b1bdd0e88195b991959609a1b60448201526064015b60405180910390fd5b600454421015801561027957506005544211155b6102ba5760405162461bcd60e51b815260206004820152601260248201527142616c6c6f743a206e6f742061637469766560701b604482015260640161025c565b6000811180156102cc57506007548111155b6103185760405162461bcd60e51b815260206004820152601960248201527f42616c6c6f743a20696e76616c69642063616e64696461746500000000000000604482015260640161025c565b336000908152600a602052604090205460ff16156103705760405162461bcd60e51b815260206004820152601560248201527410985b1b1bdd0e88185b1c9958591e481d9bdd1959605a1b604482015260640161025c565b60015460405163c3c5a54760e01b81523360048201526001600160a01b039091169063c3c5a54790602401602060405180830381865afa1580156103b8573d6000803e3d6000fd5b505050506040513d601f19601f820116820180604052508101906103dc9190610c74565b6104285760405162461bcd60e51b815260206004820152601c60248201527f42616c6c6f743a206e6f74207265676973746572656420766f74657200000000604482015260640161025c565b336000908152600a60209081526040808320805460ff1916600190811790915584845260099092528220600201805491929091610466908490610cac565b925050819055506001600860008282546104809190610cac565b9091555050604051819033907fa36cc2bebb74db33e9f88110a07ef56e1b31b24b4c4f51b54b1664266e29f45b90600090a36104bc6001600055565b50565b6060806060600060075490508067ffffffffffffffff8111156104e4576104e4610b48565b60405190808252806020026020018201604052801561050d578160200160208202803683370190505b5093508067ffffffffffffffff81111561052957610529610b48565b60405190808252806020026020018201604052801561055c57816020015b60608152602001906001900390816105475790505b5092508067ffffffffffffffff81111561057857610578610b48565b6040519080825280602002602001820160405280156105a1578160200160208202803683370190505b50915060005b818110156106c75760006105bc826001610cac565b60008181526009602052604090208054885192935090918890859081106105e5576105e5610cc5565b60200260200101818152505080600101805461060090610cdb565b80601f016020809104026020016040519081016040528092919081815260200182805461062c90610cdb565b80156106795780601f1061064e57610100808354040283529160200191610679565b820191906000526020600020905b81548152906001019060200180831161065c57829003601f168201915b505050505086848151811061069057610690610cc5565b602002602001018190525080600201548584815181106106b2576106b2610cc5565b602090810291909101015250506001016105a7565b5050909192565b6006805460ff191660011790556040517f62da22c1648062738addb8883c7a3f94ae072a1282f0d8e9e4deb361d3c67cd590600090a1565b6007805490600061071683610d15565b909155505060408051606081018252600754808252602080830185815260008486018190529283526009909152929020815181559151909190600182019061075e9082610d7f565b50604082015181600201559050506007547fe83b2a43e7e82d975c8a0a6d2f045153c869e111136a34d1889ab7b598e396a38260405161079e9190610c0f565b60405180910390a250565b600380546107b690610cdb565b80601f01602080910402602001604051908101604052809291908181526020018280546107e290610cdb565b801561082f5780601f106108045761010080835404028352916020019161082f565b820191906000526020600020905b81548152906001019060200180831161081257829003601f168201915b505050505081565b6060600080600754116108845760405162461bcd60e51b815260206004820152601560248201527442616c6c6f743a206e6f2063616e6469646174657360581b604482015260640161025c565b600060015b60075481116108c357600081815260096020526040902060020154828111156108b0578092505b50806108bb81610d15565b915050610889565b50600060015b600754811161090b576000818152600960205260409020600201548390036108f957816108f581610d15565b9250505b8061090381610d15565b9150506108c9565b508067ffffffffffffffff81111561092557610925610b48565b60405190808252806020026020018201604052801561094e578160200160208202803683370190505b509350600060015b60075481116109c3576000818152600960205260409020600201548490036109b157600081815260096020526040902054868361099281610d15565b9450815181106109a4576109a4610cc5565b6020026020010181815250505b806109bb81610d15565b915050610956565b50939491935090915050565b600260005403610a215760405162461bcd60e51b815260206004820152601f60248201527f5265656e7472616e637947756172643a207265656e7472616e742063616c6c00604482015260640161025c565b6002600055565b600060208284031215610a3a57600080fd5b5035919050565b60008151808452602080850194506020840160005b83811015610a7257815187529582019590820190600101610a56565b509495945050505050565b6000815180845260005b81811015610aa357602081850181015186830182015201610a87565b506000602082860101526020601f19601f83011685010191505092915050565b606081526000610ad66060830186610a41565b6020838203818501528186518084528284019150828160051b85010183890160005b83811015610b2657601f19878403018552610b14838351610a7d565b94860194925090850190600101610af8565b50508681036040880152610b3a8189610a41565b9a9950505050505050505050565b634e487b7160e01b600052604160045260246000fd5b600060208284031215610b7057600080fd5b813567ffffffffffffffff80821115610b8857600080fd5b818401915084601f830112610b9c57600080fd5b813581811115610bae57610bae610b48565b604051601f8201601f19908116603f01168101908382118183101715610bd657610bd6610b48565b81604052828152876020848701011115610bef57600080fd5b826020860160208301376000928101602001929092525095945050505050565b602081526000610c226020830184610a7d565b9392505050565b604081526000610c3c6040830185610a41565b90508260208301529392505050565b600060208284031215610c5d57600080fd5b81356001600160a01b0381168114610c2257600080fd5b600060208284031215610c8657600080fd5b81518015158114610c2257600080fd5b634e487b7160e01b600052601160045260246000fd5b80820180821115610cbf57610cbf610c96565b92915050565b634e487b7160e01b600052603260045260246000fd5b600181811c90821680610cef57607f821691505b602082108103610d0f57634e487b7160e01b600052602260045260246000fd5b50919050565b600060018201610d2757610d27610c96565b5060010190565b601f821115610d7a576000816000526020600020601f850160051c81016020861015610d575750805b601f850160051c820191505b81811015610d7657828155600101610d63565b5050505b505050565b815167ffffffffffffffff811115610d9957610d99610b48565b610dad81610da78454610cdb565b84610d2e565b602080601f831160018114610de25760008415610dca5750858301515b600019600386901b1c1916600185901b178555610d76565b600085815260208120601f198616915b82811015610e1157888601518255948401946001909101908401610df2565b5085821015610e2f5787850151600019600388901b60f8161c191681555b5050505050600190811b0190555056fea26469706673582212208fa767df5c7d8c3aba9d08d713fcbd5717ea2a5cf5b61b0625828a03d6c1f6fc64736f6c63430008180033a26469706673582212205cab58e6f13743e83f9fa691f378e95112c47bf128b3d46aeb1a29a1f3a205f364736f6c63430008180033",
  "linkReferences": {},
  "deployedLinkReferences": {}
}