{
  "_format": "hh-sol-artifact-1",
  "contractName": "VotingSystem",
  "sourceName": "contracts/VotingSystem.sol",
  "abi": [
    {
      "inputs": [],
      "stateMutability": "nonpayable",
      "type": "constructor"
    },
    {
      "anonymous": false,
      "inputs": [
        {
          "indexed": false,
          "internalType": "uint256",
          "name": "electionId",
          "type": "uint256"
        },
        {
          "indexed": false,
          "internalType": "string",
          "name": "candidateName",
          "type": "string"
        }
      ],
      "name": "CandidateAdded",
      "type": "event"
    },
    {
      "anonymous": false,
      "inputs": [
        {
          "indexed": false,
          "internalType": "uint256",
          "name": "electionId",
          "type": "uint256"
        },
        {
          "indexed": false,
          "internalType": "string",
          "name": "name",
          "type": "string"
        }
      ],
      "name": "ElectionCreated",
      "type": "event"
    },
    {
      "anonymous": false,
      "inputs": [
        {
          "indexed": false,
          "internalType": "uint256",
          "name": "electionId",
          "type": "uint256"
        },
        {
          "indexed": false,
          "internalType": "uint256",
          "name": "candidateId",
          "type": "uint256"
        }
      ],
      "name": "VoteCasted",
      "type": "event"
    },
    {
      "inputs": [
        {
          "internalType": "uint256",
          "name": "_electionId",
          "type": "uint256"
        },
        {
          "internalType": "string",
          "name": "_name",
          "type": "string"
        }
      ],
      "name": "addCandidate",
      "outputs": [],
      "stateMutability": "nonpayable",
      "type": "function"
    },
    {
      "inputs": [],
      "name": "admin",
      "outputs": [
        {
          "internalType": "address",
          "name": "",
          "type": "address"
        }
      ],
      "stateMutability": "view",
      "type": "function"
    },
    {
      "inputs": [
        {
          "internalType": "string",
          "name": "_name",
          "type": "string"
        },
        {
          "internalType": "uint256",
          "name": "_startTime",
          "type": "uint256"
        },
        {
          "internalType": "uint256",
          "name": "_endTime",
          "type": "uint256"
        }
      ],
      "name": "createElection",
      "outputs": [],
      "stateMutability": "nonpayable",
      "type": "function"
    },
    {
      "inputs": [
        {
          "internalType": "uint256",
          "name": "",
          "type": "uint256"
        }
      ],
      "name": "elections",
      "outputs": [
        {
          "internalType": "uint256",
          "name": "id",
          "type": "uint256"
        },
        {
          "internalType": "string",
          "name": "name",
          "type": "string"
        },
        {
          "internalType": "bool",
          "name": "isActive",
          "type": "bool"
        },
        {
          "internalType": "uint256",
          "name": "startTime",
          "type": "uint256"
        },
        {
          "internalType": "uint256",
          "name": "endTime",
          "type": "uint256"
        },
        {
          "internalType": "uint256",
          "name": "candidatesCount",
          "type": "uint256"
        }
      ],
      "stateMutability": "view",
      "type": "function"
    },
    {
      "inputs": [],
      "name": "electionsCount",
      "outputs": [
        {
          "internalType": "uint256",
          "name": "",
          "type": "uint256"
        }
      ],
      "stateMutability": "view",
      "type": "function"
    }
  ],
  "bytecode": "0x608060405234801561001057600080fd5b50600080546001600160a01b03191633179055610780806100326000396000f3fe608060405234801561001057600080fd5b50600436106100575760003560e01c80631750a3d01461005c5780635e6fef01146100715780639a74c6951461009f578063f49a7a17146100b6578063f851a440146100c9575b600080fd5b61006f61006a366004610443565b6100f4565b005b61008461007f36600461048a565b6101dc565b604051610096969594939291906104e9565b60405180910390f35b6100a860015481565b604051908152602001610096565b61006f6100c4366004610527565b61029e565b6000546100dc906001600160a01b031681565b6040516001600160a01b039091168152602001610096565b6000546001600160a01b031633146101275760405162461bcd60e51b815260040161011e90610575565b60405180910390fd5b60008281526002602052604081206006810180549192610146836105b7565b9091555050604080516060810182526006830154808252602080830186815260008486018190529283526005860190915292902081518155915190919060018201906101929082610669565b50604091820151600290910155517fe83b2a43e7e82d975c8a0a6d2f045153c869e111136a34d1889ab7b598e396a3906101cf9085908590610729565b60405180910390a1505050565b600260205260009081526040902080546001820180549192916101fe906105de565b80601f016020809104026020016040519081016040528092919081815260200182805461022a906105de565b80156102775780601f1061024c57610100808354040283529160200191610277565b820191906000526020600020905b81548152906001019060200180831161025a57829003601f168201915b50505050600283015460038401546004850154600690950154939460ff9092169390925086565b6000546001600160a01b031633146102c85760405162461bcd60e51b815260040161011e90610575565b81811161030d5760405162461bcd60e51b8152602060048201526013602482015272125b9d985b1a59081d1a5b59481c195c9a5bd9606a1b604482015260640161011e565b6001805490600061031d836105b7565b90915550506001805460008181526002602052604090209081559081016103448582610669565b5060028101805460ff1916905560038101839055600481018290556001546040517f52be7c4e77b4de76b7607d621492061fe13b58597e72dfb5e51ab8f6187ed14191610392918790610729565b60405180910390a150505050565b634e487b7160e01b600052604160045260246000fd5b600082601f8301126103c757600080fd5b813567ffffffffffffffff808211156103e2576103e26103a0565b604051601f8301601f19908116603f0116810190828211818310171561040a5761040a6103a0565b8160405283815286602085880101111561042357600080fd5b836020870160208301376000602085830101528094505050505092915050565b6000806040838503121561045657600080fd5b82359150602083013567ffffffffffffffff81111561047457600080fd5b610480858286016103b6565b9150509250929050565b60006020828403121561049c57600080fd5b5035919050565b6000815180845260005b818110156104c9576020818501810151868301820152016104ad565b506000602082860101526020601f19601f83011685010191505092915050565b86815260c06020820152600061050260c08301886104a3565b9515156040830152506060810193909352608083019190915260a09091015292915050565b60008060006060848603121561053c57600080fd5b833567ffffffffffffffff81111561055357600080fd5b61055f868287016103b6565b9660208601359650604090950135949350505050565b60208082526022908201527f4f6e6c792061646d696e2063616e20706572666f726d2074686973206163746960408201526137b760f11b606082015260800190565b6000600182016105d757634e487b7160e01b600052601160045260246000fd5b5060010190565b600181811c908216806105f257607f821691505b60208210810361061257634e487b7160e01b600052602260045260246000fd5b50919050565b601f821115610664576000816000526020600020601f850160051c810160208610156106415750805b601f850160051c820191505b818110156106605782815560010161064d565b5050505b505050565b815167ffffffffffffffff811115610683576106836103a0565b6106978161069184546105de565b84610618565b602080601f8311600181146106cc57600084156106b45750858301515b600019600386901b1c1916600185901b178555610660565b600085815260208120601f198616915b828110156106fb578886015182559484019460019091019084016106dc565b50858210156107195787850151600019600388901b60f8161c191681555b5050505050600190811b01905550565b82815260406020820152600061074260408301846104a3565b94935050505056fea264697066735822122010e42511c2db0d27d203bb40689c544ce3077e1571e101910d5c525cbba3596664736f6c63430008180033",
  "linkReferences": {},
  "deployedLinkReferences": {}
}